:100000000C94E2000C940A010C940A010C940A016D
:100010000C940A010C940A010C940A010C940A0134
:100020000C940A010C940A010C940A010C940A0124
:100030000C940A010C940A010C940A010C940A0114
:100040000C9481120C940A010C94F1120C94CB12B2
:100050000C940A010C940A010C940A010C940A01F4
:100060000C9423130C940A01CDCCCC3D0AD7233C2D
:1000700017B7D13877CC2B329595E6241FB14F0AAC
:10008000000020410000C84200401C4620BCBE4C7D
:10009000CA1B0E5AAEC59D74446573657269616C66
:1000A000697A65204A736F6E204572726F72203ACA
:1000B000200031393A30303A3035004F6374202017
:1000C00038203230323400537461747573203A2012
:1000D000525443204C6F737420506F7765722C20FC
:1000E00073657474696E67207468652074696D65E2
:1000F0002100537461747573203A20436F756C64EA
:100100006E27742066696E642052544300436C6FFE
:100110007365004F70656E0054696D65203A20006C
:1001200044617465203A2000250043617061636971
:100130007479203A200044697361626C6500456EF1
:1001400061626C6500537769746368204665656415
:100150006572203A20004175746F204665656465BC
:1001600072203A2000000000080002010000030491
:100170000700000000000000001F1C1F1E1F1E1FA4
:100180001F1E1F1E00000000250028002B0000007D
:100190000000240027002A000404040404040404CA
:1001A0000202020202020303030303030102040822
:1001B00010204080010204081020010204081020D1
:1001C0004214691911241FBECFEFD8E0DEBFCDBFA6
:1001D00024E0A2E0B2E001C01D92AE33B207E1F725
:1001E00012E0A0E0B1E0EAE1FDE302C005900D926B
:1001F000A230B107D9F710E0C1EED0E004C02197DA
:10020000FE010E94BA1BC03ED107C9F70E94CF145D
:100210000C94801E0C9400000895CF93DF93EC01A2
:10022000E0914602F09147023097F1F09091760309
:10023000809175039817C0F090E0292F30E02617C1
:10024000370754F4DE01A20FB31F4C912F5F3C4FD0
:10025000D9014C939F5FF1CF1092760360937503A1
:10026000CB01DF91CF910994DF91CF91089590E078
:10027000FC01E455FE4F249188569E4FFC01849169
:10028000882399F090E0880F991FFC01E257FE4FF8
:10029000A591B491FC01EC57FE4F859194918FB7D5
:1002A000F894EC91E22BEC938FBF089590E0FC0161
:1002B000EB59FE4F2491FC01E455FE4F3491FC01B3
:1002C000E856FE4FE491EE23C9F0222339F02330A3
:1002D00001F1A8F4213019F1223029F1F0E0EE0FFC
:1002E000FF1FEC57FE4FA591B4918FB7F894EC9196
:1002F000611126C030953E233C938FBF089527306F
:10030000A9F02830C9F0243049F7809180008F7D12
:1003100003C0809180008F7780938000DFCF84B509
:100320008F7784BDDBCF84B58F7DFBCF8091B0000C
:100330008F778093B000D2CF8091B0008F7DF9CFBE
:100340003E2BDACF3FB7F89480915F029091600224
:10035000A0916102B091620226B5A89B05C02F3F13
:1003600019F00196A11DB11D3FBFBA2FA92F982FDB
:100370008827BC01CD01620F711D811D911D42E0D6
:10038000660F771F881F991F4A95D1F708952FB7D9
:10039000F89460915B0270915C0280915D02909193
:1003A0005E022FBF0895AF92BF92CF92DF92EF927D
:1003B000FF920F931F93CF93DF936C017B018B010F
:1003C000040F151FEB015E01AE18BF08C017D1075F
:1003D00059F06991D601ED91FC910190F081E02DE9
:1003E000C6010995892B79F7C501DF91CF911F913E
:1003F0000F91FF90EF90DF90CF90BF90AF90089556
:10040000FC01538D448D252F30E0842F90E0821B1A
:10041000930B541710F0CF96089501970895FC019F
:10042000918D828D981761F0A28DAE0FBF2FB11DF7
:100430005D968C91928D9F5F9F73928F90E008954F
:100440008FEF9FEF0895FC01918D828D981731F009
:10045000828DE80FF11D858D90E008958FEF9FEF5D
:100460000895FC01918D228D892F90E0805C9F4F33
:10047000821B91098F739927089587E793E00E9463
:10048000310221E0892B09F420E0822F089580E0D9
:1004900090E0892B29F00E943D0281110C9400000C
:1004A0000895FC01A48DA80FB92FB11DA35ABF4F09
:1004B0002C91848D90E001968F739927848FA68963
:1004C000B7892C93A089B1898C91837080648C93B7
:1004D000938D848D981306C00288F389E02D808166
:1004E0008F7D80830895EF92FF920F931F93CF9398
:1004F000DF93EC0181E0888F9B8D8C8D98131AC05F
:10050000E889F989808185FF15C09FB7F894EE8945
:10051000FF896083E889F9898081837080648083A2
:100520009FBF81E090E0DF91CF911F910F91FF90ED
:10053000EF900895F62E0B8D10E00F5F1F4F0F7395
:100540001127E02E8C8D8E110CC00FB607FCFACF50
:10055000E889F989808185FFF5CFCE010E9451029B
:10056000F1CFEB8DEC0FFD2FF11DE35AFF4FF08221
:100570009FB7F8940B8FEA89FB8980818062CFCF87
:100580000F931F93CF93DF938C01D0E0C0E0F8016D
:10059000EC0FFD1F6491662341F087E793E00E9412
:1005A0007302892B11F02196F2CFCE01DF91CF910A
:1005B0001F910F910895CF93DF93EC01888D8823CD
:1005C000B9F0AA89BB89E889F9898C9185FD03C0B6
:1005D000808186FD0DC00FB607FCF7CF8C9185FF9B
:1005E000F2CF808185FFEDCFCE010E945102E9CF8D
:1005F000DF91CF9108950F931F93CF93DF93EC0179
:100600008B0188859985029749F46130710509F459
:1006100036C04CF560E00115110591F1888599858A
:10062000049749F40130110509F451C09CF50115F6
:10063000110509F43BC088859985059709F0C5C067
:100640000A30110508F0C1C0F801E75DFC4F0C94B9
:10065000BA1B7B0385039303A503BD03BF03C50337
:10066000CF03DD03E3036230710591F060E00330F6
:100670001105A1F68C850E94560160E005C061E07D
:100680008C850E94560161E08E850E945601C6CF7E
:1006900061E0F0CF0230110501F10330110559F688
:1006A00061E08C850E94560160E01CC061E08C8591
:1006B0000E94560160E08E850E94560161E08889A3
:1006C0000E94560160E08A890E945601B4CF60E022
:1006D0008C850E94560161E0EECF60E08C850E941F
:1006E000560161E08E850E94560160E088890E9473
:1006F000560161E0E8CF60E08C850E94560161E020
:100700008E850E94560161E009C060E08C850E94E0
:10071000560161E08E850E94560160E088890E9442
:10072000560160E00DC060E08C850E94560161E0DA
:100730008E850E94560160E088890E94560161E022
:100740008A890E94560161E011C060E08C850E9498
:10075000560161E08E850E94560160E088890E9402
:10076000560161E08A890E94560160E08C89DF9120
:10077000CF911F910F910C94560161E0E7CF61E09A
:100780008C850E94560160E0E5CF61E08C850E9477
:10079000560160E08E850E94560161E0DFCF61E086
:1007A0008C850E94560160E08E850E94560161E0B2
:1007B00088890E94560160E0D5CF61E08C850E9457
:1007C000560160E09DCF60E0F9CFDF91CF911F919E
:1007D0000F910895FC01908190539A3008F090E0B9
:1007E000818180532AE0929F800D11240895DC01BD
:1007F00050E0E9E7F1E081E0861730F49491490F89
:10080000511D8F5F3196F8CF633038F0CD01837082
:100810009927892B11F44F5F5F4F9D012D5F3F4F4B
:1008200036952795369527956DE671E0A69FC00110
:10083000A79F900DB69F900D11240197820F931FD3
:10084000840F951F089520912302260F3327331F0D
:1008500021323105ECF420914703FC0190E080E067
:10086000243069F082E00895A09123022191AC0127
:100870004D5F5D4FA40FB52FB11D2C9301968617C8
:1008800098F380912302680F6093230280E008951B
:1008900081E008951092470381E08093460310920F
:1008A000210361E082E10E94560161E083E10E9440
:1008B0005601E9EBF0E080818E7F808380818D7F1F
:1008C000808388E48093B80085E48093BC00089519
:1008D00010927603109275031092740310927303B2
:1008E0000E944A048CE091E090937203809371031C
:1008F0008DE091E09093700380936F030895CF9300
:10090000DF9391E0909302028823B9F0C091B80080
:10091000D091BA008091BC008A7B8093BC0060E0DB
:1009200082E10E94560160E083E10E9456010E942C
:100930004A04D093BA00C093B800DF91CF910895D4
:100940008F929F92AF92BF92CF92DF92EF92FF92DF
:100950000F931F93CF93DF93D0917303D13208F09D
:10096000D7C0182FC0916E030E94A2016B017C01B9
:100970008091470381116BC082E0809347031093FD
:1009800046038FEF8093450310924403D0934303B3
:10099000AEE4B3E0E3E2F3E080E0D81391C010925C
:1009A000220380912203CC0FC82BC0932203809195
:1009B0002103813009F088C0109221030E94A20116
:1009C0006B017C01809122038093BB0080914903DD
:1009D00090914A03A0914B03B0914C03892B8A2B31
:1009E0008B2BA1F00E94A2010091490310914A03B0
:1009F00020914B0330914C036C197D098E099F099E
:100A0000061717072807390708F442C08091BC0071
:100A100083FDD8CF85EC8093BC000E94A2016B01BE
:100A20007C0180914703823009F450C080914503D6
:100A30008F3F09F46FC080914503803209F46CC088
:100A400080914503803309F469C084E026C0809119
:100A5000490390914A03A0914B03B0914C03892B19
:100A60008A2B8B2B09F484CF0E94A201809049032A
:100A700090904A03A0904B03B0904C036C197D09F1
:100A80008E099F0986169706A806B90608F070CF4A
:100A9000809148030E947F0485E0109274031092B5
:100AA000730310924D03DF91CF911F910F91FF902F
:100AB000EF90DF90CF90BF90AF909F908F90089570
:100AC0009D9191938F5F69CF85EEA5CF809149036A
:100AD00090914A03A0914B03B0914C03892B8A2B30
:100AE0008B2B09F49ECF0E94A20100914903109123
:100AF0004A0320914B0330914C036C197D098E09F8
:100B00009F09061717072807390708F08ACFC0CFB3
:100B100081E0C3CF80E0C1CF82E0BFCF83E0BDCF13
:100B2000CF93DF93EC018B818823A1F0888191E042
:100B300090934D0380936E0310927403109273038D
:100B400081E00E94A00491E0811190E0892FDF9163
:100B5000CF9108950E94680481E08B83CE010E94AA
:100B60009005982F8111E2CFF1CF0895E09176039F
:100B700080917503E81730F4F0E0EF5FFC4F80815F
:100B800090E008958FEF9FEF089590917603809104
:100B900075032FEF3FEF981748F4E92FF0E0EF5F70
:100BA000FC4F208130E09F5F90937603C901089548
:100BB0008091750390917603891B990B0895CF92CC
:100BC000DF92EF92FF920F931F93CF93DF937C01FD
:100BD000CB018A0120914D03222389F0EB016B01A7
:100BE000C40ED51ECC15DD0569F06991D701ED91D4
:100BF000FC910190F081E02DC7010995F3CF642F9E
:100C00000E942304C801DF91CF911F910F91FF90A3
:100C1000EF90DF90CF900895CF93DF931F92CDB7E1
:100C2000DEB7698320914D032223F9F020917303ED
:100C3000203258F021E030E0FC013383228390E041
:100C400080E00F90DF91CF91089580917403E82F99
:100C5000F0E0E25BFC4F998190838F5F8093740397
:100C60008093730381E090E0ECCF61E0CE010196C8
:100C70000E942304F7CF90E080E008954F925F92A6
:100C80006F927F928F929F92AF92BF92CF92DF929C
:100C9000EF92FF920F931F93CF93DF93EC018B01A1
:100CA0006A8D7B8D8C8D9D8D0E94D5196B017C0189
:100CB000B801110F880B990B0E94D71920E030E082
:100CC00044EB53E40E94D81B9B01AC01C701B60161
:100CD0000E94361A0E944A1C9B018B0177FF04C0B8
:100CE00000271127061B170B121613060CF04AC01B
:100CF00081E090E09983888384E0E82EF12C9AE0EB
:100D0000C92ED12C0115110509F44EC00E94A20173
:100D10008E889F88A88CB98C2B013C0148185908F3
:100D20006A087B088A809B80AC80BD804814590487
:100D30006A047B0438F36E8B7F8B888F998F8A854A
:100D40009B85288139812130310511F501969B87DA
:100D50008A872E813F818217930711F41B861A869A
:100D6000015011098A859B8528853985B601253072
:100D7000310509F0B7010E94651BBC01CE010E943C
:100D8000FB02C0CF232B09F4B7CF19821882B4CF4E
:100D9000892B21F48E819F819B878A878A859B85F9
:100DA00001979B878A87DCCFDF91CF911F910F91AD
:100DB000FF90EF90DF90CF90BF90AF909F908F907B
:100DC0007F906F905F904F900895982F80336CF0D4
:100DD0008A3324F08F3524F08B3724F481E0089592
:100DE00081341CF081E09B350CF080E00895FC011B
:100DF0008685811114C0A185B285838594852FEFE6
:100E00003FEFA817B90730F4CD010196928781878B
:100E10002C9130E037FD20E0258781E086878585AD
:100E200008951F93CF93DF93EC01162F0E94F706CE
:100E3000811306C01E8681E0DF91CF911F91089536
:100E400080E0FACF0F931F93CF93DF938C01EB01D8
:100E50008991882369F0C8010E94F706882379F0F8
:100E6000FE013197908198130DC0F8011686F0CFDE
:100E700090E080E0DF91CF911F910F91089582E083
:100E800090E0F8CF83E090E0F5CFCF93DF93EC01D3
:100E9000CE010E94F7068B304CF489305CF4882335
:100EA00059F081E0888790E080E00BC08D3011F030
:100EB0008032B9F71E86ECCF8885811105C081E0AC
:100EC00090E0DF91CF91089582E090E0FACFFC01AD
:100ED00024813581A9014F5F5F4F86819781481733
:100EE000590748F48281938155834483FC01E20FC2
:100EF000F31F608308950190F081E02D81E08087E9
:100F000008959F92AF92BF92CF92DF92EF92FF929D
:100F10000F931F93CF93DF9300D000D01F92CDB7D4
:100F2000DEB78C010E94F706D82ED8011E961C92BF
:100F3000F12CE12C60EFC62EC8010E94F706F801E3
:100F40001686D81609F4B4C0811113C082E090E06F
:100F50000F900F900F900F900F90DF91CF911F91F6
:100F60000F91FF90EF90DF90CF90BF90AF909F9048
:100F700008958C3509F09AC0C8010E94F7068823AD
:100F800029F3EAE8F1E0853709F084C0D8011E961C
:100F90001C9254E0952EB12CA12CC8010E94F7069A
:100FA0008823A1F2813434F48053803130F083E01F
:100FB00090E0CECF8F7D8753F8CF44E0AA0CBB1CC6
:100FC0004A95E1F7A82AF80116869A949110E5CF80
:100FD000C501985D8115944020F47501F3E0FF226E
:100FE000ABCFC5019C5D81159440A8F483E0B82285
:100FF000B701762F6627770F770F6A297B2990E054
:1010000080E00196603871058105910540F4C801C2
:101010000E94670791CFB50190E080E0F3CF19827D
:10102000262F2F7320682A8326E09695879577953B
:1010300067952A95D1F76032710580F4606C6B83F7
:101040005E01A4E0AA0EB11CD5016E915D0166237C
:1010500009F472CFC8010E946707F6CF262F2F73BD
:1010600020682B8386E0769567958A95E1F7603155
:10107000710538F4606E6C835E01B5E0AB0EB11C97
:10108000E3CF60686C83CD825E01E6E0AE0EB11CFA
:10109000DBCF32969081992309F489CF8913F9CF58
:1010A0008181882309F483CFF8011686682FAFCF9A
:1010B0000190F081E02D8085882319F084E090E094
:1010C00047CF90E080E044CF4F925F926F927F9243
:1010D0008F929F92AF92BF92CF92DF92EF92FF9248
:1010E0000F931F93CF93DF93EB01DC012C912B32F5
:1010F000D9F12D32D1F50196FF24F394FC01208122
:1011000030ED320F3A3018F02E3209F042C18C0126
:1011100060E070E0CB01F801219130ED832E820E6A
:1011200039E0381520F16A3949E97407840749E143
:10113000940738F5AAE0B0E09B01AC010E94F41AD4
:10114000912CB12CA12C2401350140945094609431
:101150007094461657066806790698F0680D791D52
:101160008A1D9B1D8F01D7CF0196F12CC7CF21116E
:1011700008C0FF20E9F161307105810550E895074D
:10118000A0F0E12CBAE08B2E912CA12CB12C611592
:10119000710530E883079105B0F1A50194010E9423
:1011A000791BCA01B901E394F2CF2C8120782A601F
:1011B0002C839B01AC0188279927DC01821B930BB0
:1011C000A40BB50B88839983AA83BB838F2DDF91F2
:1011D000CF911F910F91FF90EF90DF90CF90BF9034
:1011E000AF909F908F907F906F905F904F900895F9
:1011F0002C81207828602C83688379838A839B8361
:10120000FF24F394E3CFF801D8012D918D0130ED47
:10121000320F3A3010F4E394F6CF2E3201F58F01FD
:101220000F5F1F4FF8010F5F1F4F2081A0EDDA2ED7
:10123000D20EB9E0BD1598F06C3CECEC7E07ECE00A
:101240008E07910578F7AAE0B0E09B01AC010E94FF
:10125000F41A6D0D711D811D911DEA94E3CF20815B
:101260002F7D10E000E0253409F05BC021812D3294
:10127000D1F53296CC24C394DF0110E000E02E2D8E
:101280000E2C000C330B5AE0B52EFD01DD9040ED25
:101290004D0D4A3008F040C0B09EA001B19E500DE7
:1012A00011240D2DDD0C110B00531109040F151F16
:1012B000A801420F531F473251053CF38C81CC20CB
:1012C000C9F040E050E060E070E8F11003C040E099
:1012D00050E0BA0180788C608C83488359836A839C
:1012E0007B83FC2C73CF2B3219F03196C12CC4CFE9
:1012F0003296FCCF40E050E060E87FEFF11004C090
:1013000040E050E060E87FE780788C608C83488321
:1013100059836A837B8374CFCC2019F01195019592
:1013200011092081211135C00E0D111DE7FC1A9500
:101330000E94D51930E8C32E30E0D32E10161106C6
:101340003CF011950195110948E6C42E40E0D42ED9
:10135000E12C0115110591F000FF0CC024E0E29E84
:10136000F0011124EC0DFD1D25913591459154910D
:101370000E94361A15950795E394EBCFF11090581B
:101380002C8120782C602C83688379838A839B83CB
:1013900037CFF12C1BCFCF92DF92EF92FF92CF93FA
:1013A000DF9300D000D01F92CDB7DEB7FC0184815F
:1013B0008F778630B9F028F4843088F590E080E0AB
:1013C00013C08A30E9F08C30B9F18830B9F78081E8
:1013D0009181A281B381811520E89207A105B10511
:1013E00068F702C0808190E00F900F900F900F90EF
:1013F0000F90DF91CF91FF90EF90DF90CF90089505
:1014000080819181A281B381AC01BD0150586F4FA1
:101410007F4F411551056140710580F6E5CF808110
:1014200091811D82BE016F5F7F4F0E946408CE01D3
:1014300001960E94CB09D8CFC080D180E280F38092
:1014400020E030E040E057ECC701B6010E94801C6C
:1014500087FDB4CF20E03EEF4FEF56E4C701B60161
:101460000E94D01918160CF4A9CFC701B6010E942A
:101470004A1CCB01B9CFCF93FC01892B49F1948150
:101480009F779830E1F040F4992311F19630A9F05C
:10149000C1E08C2FCF9108959A3089F09C30C1F72C
:1014A000C1E020E030E0A9016081718182819381F7
:1014B0000E94D0198111EDCF0BC0C081EACFC1E0ED
:1014C00080819181A281B381892B8A2B8B2B09F793
:1014D000C0E0DFCFCF93DF93DC01EB01EC81FD8136
:1014E0008A819B810896E817F90740F481E0888794
:1014F000F0E0E0E0CF01DF91CF9108953897FD83D0
:10150000EC833097B9F31296CD91DC911397209725
:1015100091F0CF018C1B9D0B23E0959587952A9523
:10152000E1F78D831396FC93EE9312971582148244
:1015300017821682DFCF1196FC93EE93F3CFEF92D2
:10154000FF920F931F93CF93DF937C01DC011296E0
:101550002D913C911397ED91FC91AB01420F531FDC
:10156000EF01C60FD71FC217D307A0F488818111DE
:101570000BC0E901CF014C175D0751F00991DC0167
:101580001D91CD010117B9F381918111FDCFE8CFF4
:10159000309751F4620F731FCB010196F7019383CB
:1015A0008283DB011C92F901CF01DF91CF911F9162
:1015B0000F91FF90EF9008951F93CF93DF93DC017D
:1015C0001496ED91FC91E417F50710F490E01FC01C
:1015D000122FEA01FC0181819281208131E0309358
:1015E0004D0320936E031092740310927303DC0179
:1015F000ED91FC910280F381E02D0995C817D90780
:1016000029F7812F0E94A00491E08111DFCF892F5B
:10161000DF91CF911F9108952F923F924F925F9249
:101620006F927F928F929F92AF92BF92CF92DF92F2
:10163000EF92FF920F931F93CF93DF935C011B01F7
:101640006A01F12CE12CD50114968D919C918601B3
:101650000E191F098017910708F48C01F501D0813C
:101660000E94A2012B013C0180914703811172C0AD
:10167000C02F013208F0C0E2F1E0F093470321E00F
:10168000C601801B910BE816F90608F420E02093B0
:1016900046038FEF80934503109244038C0F809391
:1016A0004303A1E0A093220380912203DD0FD82BF6
:1016B000D093220380912103813009F090C01092D1
:1016C00021030E94A2012B013C01809122038093FF
:1016D000BB008091490390914A03A0914B03B091C4
:1016E0004C03892B8A2B8B2BA1F00E94A201209105
:1016F000490330914A0340914B0350914C036419C4
:10170000750986099709261737074807590708F406
:1017100042C08091BC0083FDD8CFB5ECB093BC0033
:101720000E94A2012B013C0180914703813009F402
:101730005AC0809144038C1710F4C0914403A3E273
:10174000B3E0E1E0F3E080E08C1751F19D919193DB
:101750008F5FFACF8091490390914A03A0914B0388
:10176000B0914C03892B8A2B8B2B09F47DCF0E94DF
:10177000A2012091490330914A0340914B035091BB
:101780004C03641975098609970926173707480716
:10179000590708F069CF809148030E947F04C0E098
:1017A00010927603C0937503C017110609F057C055
:1017B00041018E0C9F1CE401CE0188199909801704
:1017C000910798F5D50111968D919C91DC01ED91D1
:1017D000FC910284F385E02D09958993EDCFE5EE28
:1017E000E093BC009DCF8091490390914A03A09162
:1017F0004B03B0914C03892B8A2B8B2B09F494CF8C
:101800000E94A2012091490330914A0340914B0369
:1018100050914C03641975098609970926173707F3
:101820004807590708F080CFB6CFE00EF11EEC1440
:10183000FD0408F408CF81E0DF91CF911F910F9153
:10184000FF90EF90DF90CF90BF90AF909F908F90E0
:101850007F906F905F904F903F902F90089580E021
:10186000EBCF0F931F93CF93DF9300D0CDB7DEB7AD
:101870008C018FE08A8321E041E050E0BE016E5F81
:101880007F4FF801808191810E94DC0A41E050E0A5
:10189000BE016F5F7F4FF801808191810E940C0B28
:1018A00089810F900F90DF91CF911F910F91089533
:1018B000EF92FF920F931F93CF93DF9300D000D04E
:1018C00000D01F92CDB7DEB78C011982DB01ED90FD
:1018D000FC9020E041E050E0BE016F5F7F4FC70108
:1018E0000E94DC0A882341F047E050E0BE016F5FB0
:1018F0007F4FC7010E940C0BE981EF77FA81FB80D3
:101900005D814E814F778F81282F30E094E03595AF
:1019100027959A95E1F7922F990F990F291B220F7E
:10192000280FD8012C93842F90E024E0959587957B
:101930002A95E1F7982F990F990F891B880F840F2B
:1019400011968C931197652F70E034E0759567952B
:101950003A95E1F7862F880F880F681B660F650F91
:1019600012966C9312974F2D50E064E05595479571
:101970006A95E1F7842F880F880F481B440F4F0D9D
:1019800013964C9313972F2F30E074E035952795DD
:101990007A95E1F7822F880F880F281B220F2F0FCF
:1019A00014962C9314978E2F90E0F4E095958795DC
:1019B000FA95E1F7982F990F990F891B880F8E0FD1
:1019C00015968C93C80127960FB6F894DEBF0FBE0C
:1019D000CDBFDF91CF911F910F91FF90EF900895B0
:1019E000FC0101900020E9F73197AF01481B590B2A
:1019F000BC0187E793E00C94D301CF93DF930E945F
:101A0000C002EC018BE991E00E94F00C8C0F9D1F4D
:101A1000DF91CF910895CF93DF93FC0144815581ED
:101A20006081718187E793E00E94D301EC018BE92B
:101A300091E00E94F00C8C0F9D1FDF91CF910895D3
:101A4000CF93DF9361157105A1F1DC018D919C911C
:101A5000009789F1EC01EE81FF81DB010D90002000
:101A6000E9F71197A61BB70B30E020E0309749F05B
:101A7000EF0109900020E9F79E01215031092E1B4A
:101A80003F0B2A173B0751F4DB01260F371F2A179C
:101A90003B0789F05D9141915417C9F3FC01258101
:101AA000222339F0F8E02F0290011124820F931FB6
:101AB000CFCF90E080E0DF91CF9108959F92AF92D9
:101AC000BF92CF92DF92EF92FF920F931F93CF932B
:101AD000DF93EC017B01D42E0E9445078C01892BFA
:101AE00009F052C0CE010E94F706863609F455C1AE
:101AF00094F5873229F08B35D1F1823209F056C145
:101B0000E881F981828193819B838A838481958195
:101B100022813381821B930B9F838E831D821C82C3
:101B2000892B11F481E08087CE010E9481078C010E
:101B3000892B51F5AC80BD80B501888199810E94C7
:101B40009F0AF70124812078256024839183808374
:101B5000B382A28219C0843709F408C18B3709F413
:101B600053C08E3609F022C169EA71E008C1F7015D
:101B7000848180788064848311821082138212822F
:101B8000D1100FC005E010E0C801DF91CF911F9187
:101B90000F91FF90EF90DF90CF90BF90AF909F900C
:101BA00008951E86CE010E944507009709F02DC1B9
:101BB0006DE5CE010E9411078111E6CFDA946F85A1
:101BC0007889C7010E946A0A009709F46EC04D2DFA
:101BD000BC01CE010E945E0D009709F016C1CE0136
:101BE0000E944507009709F010C16DE5CE010E94E3
:101BF00011078111C9CF6CE2CE010E94110781113A
:101C0000DECF03E010E0C0CFF701848180788062EE
:101C100084831182108213821282DD2009F4B2CFF4
:101C20001E86CE010E944507009709F0EEC06DE7C1
:101C3000CE010E9411078111A7CFBB24B394DA947F
:101C4000E881F981828193819B838A838481958154
:101C500022813381821B930B9F838E831D821C8282
:101C6000892B09F4B086CE010E94F706873201F174
:101C70008232F1F0CE010E94F706182F0E94E5068D
:101C8000882309F4BECF1E86612FCE010E9467070C
:101C9000CE010E94F706182F0E94E5068111F3CFAE
:101CA000E881F9818085882351F004E010E06CCF51
:101CB000CE010E9481078C01892B09F065CFCE01EE
:101CC0000E9445078C01892B09F05ECF6AE3CE01A3
:101CD0000E941107882309F494CFEA81FB818C814B
:101CE0009D81E80FF91F10820C811D816A817B8123
:101CF000C7010E94200DBC01892BA1F4B801888185
:101D000099810E949F0A8C016F857889C7010E9482
:101D10006A0AFC01892B49F28481806884831783D5
:101D20000683BF014D2DCE010E945E0D8C01892BD3
:101D300009F02ACFCE010E9445078C01892B09F0BA
:101D400023CF6DE7CE010E94110781111DCF6CE2F8
:101D5000CE010E941107882309F453CFCE010E94BF
:101D600045078C01892B09F46BCF0ECFF7018481D5
:101D700080788660848381E080836EE971E0CE01A3
:101D8000DF91CF911F910F91FF90EF90DF90CF9057
:101D9000BF90AF909F900C942207F70184818078C8
:101DA00086608483108263EA71E0E9CFCE010E94ED
:101DB000F7065E01F1E1AF0EB11CD12C9A2CCB2CB1
:101DC000803374F08A3374F49FE3D91699F01E8639
:101DD000D394F50181935F01CE010E94F706F0CF05
:101DE0008B3291F393ED980F923070F3982F9F7D83
:101DF000953451F3CD0DD11D198AB701892D9C2D34
:101E00000E9464088111C0CEFCCE8C01BDCEFC01C5
:101E1000248125FD0C94200D90E080E00895CF935F
:101E2000DF93EC0188819981009711F00E94211DB8
:101E3000198218821D821C821B821A82DF91CF9127
:101E40000895FC0180819181009711F00C94211D6F
:101E500008958FE692E00E94210F89E692E00E94A9
:101E6000210F83E692E00C94210F0F931F93CF93E1
:101E7000DF93EC0188819981009759F02A813B8199
:101E80002617370730F081E0DF91CF911F910F9136
:101E900008958B016F5F7F4F0E94AA1D009759F034
:101EA000998388831B830A832C813D81232B59F7D7
:101EB000FC011082E8CF80E0E7CFEF92FF920F9312
:101EC0001F93CF93DF936115710541F480E0DF919B
:101ED000CF911F910F91FF90EF90089541155105FB
:101EE000B1F07B01EC010C811D81040F151FB801BD
:101EF0000E94350F882351F3288139818C819D817F
:101F0000B701820F931F0E94791E1D830C8381E00D
:101F1000DECFCF93DF93EC01FB0101900020E9F7C6
:101F20003197AF01461B570B0E945D0F811103C013
:101F3000CE010E940F0FCE01DF91CF910895CF9374
:101F4000DF93EC01FB0144815581608171810E9426
:101F50005D0F811103C0CE010E940F0FCE01DF91F2
:101F6000CF910895EF92FF920F931F93CF93DF933A
:101F7000EC017B018A01BA010E94350F81110BC06F
:101F8000CE010E940F0FCE01DF91CF911F910F91D3
:101F9000FF90EF9008951D830C83B701888199818C
:101FA0000E94791EF0CFEF92FF920F931F93CF9371
:101FB000DF93CDB7DEB729970FB6F894DEBF0FBE1B
:101FC000CDBF8C01862FF8011182108213821282FC
:101FD000158214824AE09E012F5F3F4F7901B901BB
:101FE00090E00E94A619F70101900020E9F73197CF
:101FF000AF014E195F09B701C8010E94B20F2996BF
:102000000FB6F894DEBF0FBECDBFDF91CF911F9109
:102010000F91FF90EF900895FB01DC0111961C9247
:102020001E9213961C921E92129715961C921E9247
:1020300014978617970749F06081718161157105C2
:1020400021F0448155810C94B20F0895EF92FF92D4
:102050000F931F93CF93DF93CDB7DEB7AA970FB639
:10206000F894DEBF0FBECDBF7C018B010C5A1F4F11
:10207000B801CE014F960E94580C6CA1CE018596F6
:102080000E94D30FB801CE0143960E94580C6F896D
:10209000CE0149960E94D30FB801CE0101960E944D
:1020A000580C6C81CE0107960E94D30FBE01695F68
:1020B0007F4FCE010D960E940C106EEA71E0CE01AA
:1020C0000D960E94890FBE01675E7F4F0E949F0F91
:1020D0006EEA71E00E94890FBE016B5D7F4F0E9426
:1020E0009F0FBC01C7010E940C10CE010D960E94EB
:1020F000210FCE0107960E94210FCE0149960E9422
:10210000210FCE0185960E94210FC701AA960FB616
:10211000F894DEBF0FBECDBFDF91CF911F910F911D
:10212000FF90EF900895FC011182108213821282B9
:10213000158214826115710551F0FB010190002098
:10214000E9F73197AF01461B570B0C94B20F089576
:102150006AE971E083E692E00E9493106AE971E017
:1021600089E692E00E9493106AE971E08FE692E0BE
:102170000E9493101092800210927F0210927602B9
:102180001092750210928B0210928C0210928D02A6
:1021900010928E0280E098E090937C0280937B0204
:1021A00088E090E090938202809381028AE090E040
:1021B000909384028093830289E090E0909386025A
:1021C000809385028BE090E0909388028093870251
:1021D00088E00E943701809183020E94370180913C
:1021E00085020E943701809187020E943701109278
:1021F0008A021092890284E090E090937E0280939C
:102200007D0280E098E0A0E0B0E080938F029093A0
:102210009002A0939102B093920284E5E6E0F1E08F
:10222000A3E9B2E001900D928A95E1F71092E802DD
:102230001092E7021092EE021092ED021092EC0260
:102240001092E902E9E7F1E081E08C3049F09491E5
:10225000823009F49F5F21E0280F3196992351F1D4
:102260008093EA0281E08093EB021092EF021092D9
:10227000F0021092F1021092F2021092F302109208
:10228000F4021092F5021092F6021092F7021092E8
:10229000F8021092F9021092FA021092FB021092C8
:1022A000FC021092FD021092FE021092FF021092A8
:1022B00000030895822FC9CF0F931F93CF93DF930D
:1022C000CDB7DEB7C657D1090FB6F894DEBF0FBE43
:1022D000CDBF6AE971E0CE018F589F4F0E949310E5
:1022E0009091750380917603981789F084E194E0CA
:1022F0000E94C50589831A8241E050E0BE016F5FEC
:102300007F4FCE018F589F4F0E945D0FE9CF009104
:10231000480210914902C8010E94851C080F191F2C
:10232000009711F410E000E065969FAF8EAF6597BF
:1023300067969FAF8EAF679769961FAF0EAF69978D
:102340006B961FAF0EAF6B97A1961FAEA197E3964A
:102350004EAD5FADE397E7968EAD9FADE797840FE7
:10236000951F6C961FAE6C9722E530E02C0F3D1F39
:102370002F5F3F4FAB963FAF2EAFAB9768E0FE01AC
:10238000E759FF4FDE01AF59BF4F01900D926A959B
:10239000E1F768E0FE01EF59FF4FDE011196019071
:1023A0000D926A95E1F719865B874A879D878C872E
:1023B0001F86398B288B62E570E06C0F7D1F665F8E
:1023C0007F4F4AE0CE0101960E945E0D8C01892B61
:1023D00009F04BC08E85882339F0A1968FADA19767
:1023E00003E010E083FD41C060EB71E002E510E026
:1023F0000C0F1D1F065F1F4FC8010E94070F0E9490
:102400003B0A8093550262EB71E0C8010E94070FFE
:102410000E943B0A8093540264EB71E0C8010E9461
:10242000070F009719F490E080E002C00E94CB09EA
:10243000909353028093520265968EAD9FAD65973F
:10244000009711F00E94211DCE018F589F4F0E94CE
:10245000210FCA58DF4F0FB6F894DEBF0FBECDBFB5
:10246000DF91CF911F910F91089588E990E00E942C
:10247000C002000F111FF801E65AFE4F80819181C2
:10248000009711F00E94F00C8BE991E00E94F00C93
:10249000D3CF85ED8093BC008091490390914A038E
:1024A000A0914B03B0914C030796A11DB11D23E0F1
:1024B000B695A795979587952A95D1F72091BC0059
:1024C00024FD03C0109247030895409149035091A1
:1024D0004A0360914B0370914C03452B462B472BCD
:1024E00069F30097A105B10541F02AE22A95F1F7B9
:1024F00000C00197A109B109E1CF809148030C9474
:102500007F041F920F920FB60F9211242F933F93C7
:102510008F939F93AF93BF9380915B0290915C02E6
:10252000A0915D02B0915E0230915A0223E0230F28
:102530002D3758F50196A11DB11D20935A028093A5
:102540005B0290935C02A0935D02B0935E02809167
:102550005F0290916002A0916102B09162020196C7
:10256000A11DB11D80935F0290936002A093610250
:10257000B0936202BF91AF919F918F913F912F9144
:102580000F900FBE0F901F90189526E8230F02960C
:10259000A11DB11DD2CF1F920F920FB60F92112421
:1025A0002F933F934F935F936F937F938F939F935B
:1025B000AF93BF93EF93FF9387E793E00E9451029D
:1025C000FF91EF91BF91AF919F918F917F916F910B
:1025D0005F914F913F912F910F900FBE0F901F90E1
:1025E00018951F920F920FB60F9211242F938F936D
:1025F0009F93EF93FF93E0918703F091880380818D
:10260000E0918D03F0918E0382FD1BC0908180913B
:1026100090038F5F8F7320919103821741F0E091B7
:102620009003F0E0E958FC4F958F80939003FF9161
:10263000EF919F918F912F910F900FBE0F901F9050
:1026400018958081F4CF1F920F920FB60F9211242C
:102650002F933F934F935F936F937F938F939F93AA
:10266000AF93BF93EF93FF938091B900887F80363B
:1026700009F44AC0F0F5883209F4A7C018F5803192
:1026800009F49BC0B8F4882309F4F9C0883009F430
:1026900094C0FF91EF91BF91AF919F918F917F91E6
:1026A0006F915F914F913F912F910F900FBE0F90BF
:1026B0001F901895883109F488C0803251F78093B3
:1026C000450314C0803409F49DC040F48033B9F34D
:1026D0008833F9F68093450385ECB0C0803509F462
:1026E00085C0883509F496C0883499F60E9449124D
:1026F000D0CF883909F48CC038F5883729F050F4E8
:10270000883611F0803729F683E0809347031092D2
:10271000450257C0883809F47BC0803919F08038E9
:1027200009F0B7CF80914502803208F071C0E09186
:10273000450281E08E0F809345028091BB00F0E05E
:10274000EB5DFD4F80833DC0803B39F0E0F4803A83
:1027500009F479C0883A09F09CCF84E0809347035C
:102760001092240210922302E0917103F0917203FF
:1027700009958091230281110FC081E0809323028B
:102780001092030209C0803C09F4A6CF883C09F4EA
:10279000A3CF883B09F07DCFE091240281E08E0F2A
:1027A00080932402F0E0ED5FFD4F80818093BB00B9
:1027B000909124028091230229C08091220380936A
:1027C000BB0085EC8093BC0064CF90914403809162
:1027D0004303981758F5E091440381E08E0F8093EE
:1027E0004403F0E0ED5DFC4F8081E9CFE0914403CC
:1027F00081E08E0F809344038091BB00F0E0ED5D9B
:10280000FC4F808390914403809143039817C8F252
:1028100085E8D8CFE091440381E08E0F8093440394
:102820008091BB00F0E0ED5DFC4F8083809146031A
:1028300081115CCF81E08093210384EA8093BC0006
:102840001092470326CF85EC8093BC00109247037B
:1028500080914502803230F4E0914502F0E0EB5D7A
:10286000FD4F10826091450270E0E0916F03F0919E
:10287000700385E292E00995109245020ACF10920A
:10288000450334CF10927A031092790388EE93E0D7
:10289000A0E0B0E080937B0390937C03A0937D0342
:1028A000B0937E032AE631E03093780320937703D8
:1028B00025EC30E0309384032093830324EC30E054
:1028C000309386032093850320EC30E03093880317
:1028D0002093870321EC30E030938A03209389030F
:1028E00022EC30E030938C0320938B0326EC30E015
:1028F00030938E0320938D031092900310929103D6
:1029000010929203109293031092170410921604DF
:102910008093180490931904A0931A04B0931B0495
:102920008CE791E090931504809314042091320475
:102930003091330440913404509135046091360451
:10294000709137048091380490913904A1E00E947D
:10295000C01B2093320430933304409334045093CB
:102960003504609336047093370480933804909351
:1029700039040E94CC1B91F46EEB71E080E294E08C
:102980000E94931066EB71E086E294E00E9493103F
:102990006DEB71E08CE294E00C9493100895CF936A
:1029A000DF93CDB7DEB7CB54D1090FB6F894DEBFB5
:1029B0000FBECDBF789484B5826084BD84B581603C
:1029C00084BD85B5826085BD85B5816085BD8091FA
:1029D0006E00816080936E00109281008091810072
:1029E000826080938100809181008160809381006A
:1029F000809180008160809380008091B10084602C
:102A00008093B1008091B00081608093B00080918C
:102A10007A00846080937A0080917A00826080934B
:102A20007A0080917A00816080937A0080917A00A8
:102A3000806880937A001092C10080914A028111CF
:102A400005C00E94A81081E080934A02E0918703AC
:102A5000F091880382E08083E0918303F091840306
:102A60001082E0918503F09186038FEC80831092B1
:102A70008F03E0918B03F0918C0386E08083E091DB
:102A80008903F0918A03808180618083E0918903CA
:102A9000F0918A03808188608083E0918903F091BE
:102AA0008A03808180688083E0918903F0918A03A2
:102AB00080818F7D808388EC90E0909349028093A1
:102AC00048020E94680480E18093BA008CE591E19D
:102AD000909347028093460220917B0230917C02C2
:102AE000032E000C440B550B60E077E883E993E07C
:102AF0000E949B1BCA01B9012AE030E040E050E08F
:102B00000E949B1B209377023093780240937902B6
:102B100050937A0208E664E1262E64E0362E70E2D5
:102B2000A72EB12C992493948091E7029091E8020A
:102B3000009711F00E94211D86E090E00E94851C04
:102B40007C01FC010083328221821382B582A4823F
:102B50009093E8028093E7020E946804F701938251
:102B6000C7010E949005811129C082EF90E00E9468
:102B7000FD0C0E94A2016B017C0154E6452E512CF4
:102B8000612C712C0E94A2016C197D098E099F098C
:102B9000683E734081059105A8F3F1E04F1A510892
:102BA0006108710828EEC20E23E0D21EE11CF11C60
:102BB000411451046104710429F7B6CF87EE92E005
:102BC0000E94310C90E0880F892F881F990B892B68
:102BD00009F4BFC087EC90E00E94FD0C4BE050E090
:102BE0006BEB70E0CE0101967C010E949D19CE0135
:102BF0000A960E94EA03082FE981E154E33118F5AF
:102C00000E2E000CFF0BE95FF94E0C94BA1B441812
:102C100023162316581823165A182316231623167C
:102C20001A16231623164B18561854182316231653
:102C3000231652188A8111E0813629F08B8116E023
:102C40008E3609F017E0CE0105960E94EA03D82ED1
:102C500048E050E062EB70E0C7010E949D19C70197
:102C60000E94EA03C82ECE0104960E94EA03B82E01
:102C7000CE0107960E94EA03382F88E0F7011192EF
:102C80008A95E9F72AE0832F622F0E94451B982F2F
:102C9000880F890F880F830F8A838B2D0E94451B15
:102CA000982F880F890F880F8B0D8B838C2D0E9496
:102CB000451B982F880F890F880F8C0D8C834D2D05
:102CC000612F802F90E00E94F703069667E070E086
:102CD0000E94511B811101C087E08D832AE08D2D58
:102CE000622F0E94451B982F880F890F880F8D0D2A
:102CF0008E83812F0E94451B982F990F890F880F73
:102D0000180F1F83802F0E94451B982F880F890F53
:102D1000880F800F888721E048E050E0B70180915C
:102D2000E7029091E8020E94DC0A87EE92E00E949E
:102D3000310C9FE09AA38F778BA321E042E050E013
:102D4000BE016E5D7F4F8091E7029091E8020E9484
:102D5000DC0A8E010F5F1F4F3AE0432E512C612C8D
:102D6000712C27E0C22ED12C80914A02811105C01E
:102D70000E94A81081E080934A02809155028093BE
:102D80005702809154028093560280915202909192
:102D9000530290935902809358020E94C701809079
:102DA000F3029090F402A090F502B090F602681938
:102DB00079098A099B09683E73408105910508F4E9
:102DC0000AC10E94C7016093F3027093F4028093DA
:102DD000F5029093F60286E591E00E94C002809190
:102DE0005702882309F468C18EE391E00E94FD0C2C
:102DF00085E491E00E94C00280915602882309F484
:102E00005EC183E191E00E94FD0C8BE991E00E949C
:102E1000F00C8AE291E00E94C002809058029090EB
:102E20005902092C000CAA08BB08B7FE4BC16DE281
:102E300087E793E00E94730222273327A90128190C
:102E400039094A095B0919A2CE0181967C01CA01A0
:102E5000B901A30192010E94791B605DF7016293A1
:102E60007F01211531054105510589F7E114F10470
:102E700019F0C7010E94F00C88E291E00E94FD0C5D
:102E80008BE991E00E94F00C67EE72E0C8010E94AD
:102E9000580C89814B816A8190E00E94F703069665
:102EA000B6010E94511B2CE0289FB001299F700D94
:102EB00011246D567D4FCE0182960E949310CE0153
:102EC00082960E940B0DCE0182960E94210F80E215
:102ED00091E00E94C00267EE72E0CE0188960E94E7
:102EE000580C88A590E01BA21AA21DA21CA21FA22A
:102EF0001EA24AE0B8018053984F0E94A619F8011B
:102F000001900020E9F73197AF01401B510BB80148
:102F1000CE0182960E94B20F67EE72E0CE018E96CD
:102F20000E94580C68A9C8010E94D30F67EE72E096
:102F3000CE01805C9F4F0E94580C22966FAD229765
:102F4000CE01CA960E94D30FBE01665C7F4FCE01B0
:102F5000C4960E940C1064EC71E0CE01C4960E94ED
:102F6000890FB8010E949F0F64EC71E00E94890FE5
:102F7000BE016E5D7F4F0E949F0FBC01CE018A5B38
:102F80009F4F0E940C10CE01C4960E94210FCE01CB
:102F9000CA960E94210FC8010E94210FCE0182967D
:102FA0000E94210FCE018A5B9F4F0E940B0DCE0124
:102FB0008A5B9F4F0E94210F88E191E00E94C0022E
:102FC00063E972E0C8010E942610C8010E940B0D3F
:102FD000C8010E94210F8091580290915902181641
:102FE00019060CF060C180905702882009F4FEC0D9
:102FF00080E2E82E84E0F82E92E3A92E94E0B92E28
:1030000033243394B701CE0182960E940C100E94A3
:10301000C7012091EF023091F0024091F1025091EE
:10302000F202621B730B840B950B683E73408105A3
:10303000910508F480C00E94C7016093EF0270936D
:10304000F0028093F1029093F20263E972E0C8010A
:103050000E9426102D813E818EA19FA1281739073D
:1030600009F057C089819A816AA17BA1009709F470
:103070003FC06115710509F027C1232B09F427C151
:10308000FC01808190E041C08B8114E0823709F41B
:10309000DACD18E0D8CD8B8113E0823709F4D3CD97
:1030A00015E0D1CD19E0CFCD1AE0CDCD1BE0CBCDD1
:1030B0001CE0C9CD12E0C7CD86E391E097CE8DE04C
:1030C00091E0A1CEA501940119A2CE0181967C01C7
:1030D000CA01B901A30192010E94791B605DF70149
:1030E00062937F01211531054105510589F7BECE57
:1030F0006115710509F4EBC0232B09F4E8C0FB014D
:10310000808190E091958195910999249394892BE0
:1031100009F0912CC8010E94210F992061F0309292
:10312000FF020E94C7016093F7027093F802809338
:10313000F9029093FA02CE0182960E94210FF6E0E6
:10314000EF0EF11CAE14BF0409F05CCF8091FF02BA
:10315000882309F447C00E94C7018090F70290902D
:10316000F802A090F902B090FA02681979098A0968
:103170009B09693B7B408105910530F468E671E06D
:1031800085E792E00E943E060E94C7018090F70208
:103190009090F802A090F902B090FA0268197909AB
:1031A0008A099B096137774181059105D8F00E9412
:1031B000C7018090F7029090F802A090F902B090B9
:1031C000FA02681979098A099B09693273428105F3
:1031D000910540F468E97EEF85E792E00E943E06A3
:1031E0001092FF028091570281115DC080915602BA
:1031F000882309F458C00E94C7016093FB027093B2
:10320000FC028093FD029093FE0281E08093000314
:103210000E94C7018090FB029090FC02A090FD02EA
:10322000B090FE02681979098A099B09693B7B40C5
:103230008105910530F468E671E085E792E00E942F
:103240003E0680910003882371F10E94C70180909F
:10325000FB029090FC02A090FD02B090FE02681963
:1032600079098A099B096137774181059105D8F071
:103270000E94C7018090FB029090FC02A090FD028A
:10328000B090FE02681979098A099B096932734274
:103290008105910540F468E97EEF85E792E00E94A0
:1032A0003E061092000383EC90E00197F1F780E076
:1032B00090E0892B09F458CD0E943D02882309F43F
:1032C00050CD0E9400004DCD0E94701E1ECF982C44
:1032D00021CF209132043091330440913404509135
:1032E00035046091360470913704809138049091D0
:1032F0003904AFEF0E94C01B209332043093330493
:10330000409334045093350460933604709337042B
:103310008093380490933904A0E00E94CC1B61F4A0
:103320008CE294E00E94210F86E294E00E94210F3B
:1033300080E294E00C94210F0895FB01DC0102C0AF
:1033400005900D9241505040D8F70895BB27FB01DE
:103350005527AA27880F991FAA1FA41710F0A41B8E
:1033600083955051B9F7A05DAA3308F0A95DA193E8
:10337000009779F7B111B1931192CB010C94C01958
:10338000DC01FC01672F71917723E1F7329704C0CC
:103390007C916D9370836291AE17BF07C8F3089557
:1033A0000E94121A08F481E00895E89409C097FB7E
:1033B0003EF490958095709561957F4F8F4F9F4F0C
:1033C0009923A9F0F92F96E9BB279395F695879550
:1033D00077956795B795F111F8CFFAF4BB0F11F413
:1033E00060FF1BC06F5F7F4F8F4F9F4F16C08823BA
:1033F00011F096E911C0772321F09EE8872F762FF0
:1034000005C0662371F096E8862F70E060E02AF030
:103410009A95660F771F881FDAF7880F969587951C
:1034200097F90895990F0008550FAA0BE0E8FEEFF1
:1034300016161706E807F907C0F012161306E40778
:10344000F50798F0621B730B840B950B39F40A2671
:1034500061F0232B242B252B21F408950A2609F44F
:10346000A140A6958FEF811D811D08950E94491AE4
:103470000C94BA1A0E94AC1A38F00E94B31A20F0C9
:10348000952311F00C94A31A0C94A91A11240C94EE
:10349000EE1A0E94CB1A70F3959FC1F3950F50E07E
:1034A000551F629FF001729FBB27F00DB11D639FF6
:1034B000AA27F00DB11DAA1F649F6627B00DA11D9C
:1034C000661F829F2227B00DA11D621F739FB00D42
:1034D000A11D621F839FA00D611D221F749F3327B2
:1034E000A00D611D231F849F600D211D822F762F4B
:1034F0006A2F11249F5750409AF0F1F088234AF028
:10350000EE0FFF1FBB1F661F771F881F9150504093
:10351000A9F79E3F510580F00C94A31A0C94EE1A63
:103520005F3FE4F3983ED4F3869577956795B7951A
:10353000F795E7959F5FC1F7FE2B880F911D969534
:10354000879597F9089597F99F6780E870E060E0A4
:1035500008959FEF80EC089500240A94161617062C
:1035600018060906089500240A9412161306140674
:1035700005060895092E0394000C11F4882352F0D7
:10358000BB0F40F4BF2B11F460FF04C06F5F7F4F8F
:103590008F4F9F4F089557FD9058440F551F59F076
:1035A0005F3F71F04795880F97FB991F61F09F3F30
:1035B00079F087950895121613061406551FF2CF59
:1035C0004695F1DF08C0161617061806991FF1CFA9
:1035D00086957105610508940895E894BB276627D0
:1035E0007727CB0197F908950E94361BA59F900D70
:1035F000B49F900DA49F800D911D112408952F92CA
:103600003F924F925F926F927F928F929F92AF9272
:10361000BF92CF92DF92EF92FF920F931F93CF93BF
:10362000DF93CDB7DEB7CA1BDB0B0FB6F894DEBF56
:103630000FBECDBF09942A88398848885F846E847C
:103640007D848C849B84AA84B984C884DF80EE80C6
:10365000FD800C811B81AA81B981CE0FD11D0FB6CF
:10366000F894DEBF0FBECDBFED010895A29FB0015B
:10367000B39FC001A39F700D811D1124911DB29FA6
:10368000700D811D1124911D0895991B79E004C0CE
:10369000991F961708F0961B881F7A95C9F7809591
:1036A0000895AA1BBB1B51E107C0AA1FBB1FA61789
:1036B000B70710F0A61BB70B881F991F5A95A9F7DB
:1036C00080959095BC01CD01089597FB072E16F4C7
:1036D000009407D077FD09D00E94511B07FC05D04C
:1036E0003EF4909581959F4F0895709561957F4F19
:1036F0000895A1E21A2EAA1BBB1BFD010DC0AA1F33
:10370000BB1FEE1FFF1FA217B307E407F50720F04A
:10371000A21BB30BE40BF50B661F771F881F991FC5
:103720001A9469F760957095809590959B01AC010E
:10373000BD01CF010895052E97FB1EF400940E9451
:10374000B21B57FD07D00E94791B07FC03D04EF433
:103750000C94B21B50954095309521953F4F4F4F9B
:103760005F4F089590958095709561957F4F8F4F2D
:103770009F4F0895EE0FFF1F0590F491E02D0994DF
:103780000024A7FD00942A0F301D401D501D601D10
:10379000701D801D901D08950024A7FD00942A1718
:1037A00030054005500560057005800590050895B9
:1037B0000E94EC1B0C94BA1A0E94B31A58F00E9493
:1037C000AC1A40F029F45F3F29F00C94A31A511170
:1037D0000C94EE1A0C94A91A0E94CB1A68F3992340
:1037E000B1F3552391F3951B550BBB27AA276217FD
:1037F0007307840738F09F5F5F4F220F331F441F0A
:10380000AA1FA9F335D00E2E3AF0E0E832D091503D
:103810005040E695001CCAF72BD0FE2F29D0660F2A
:10382000771F881FBB1F261737074807AB07B0E86D
:1038300009F0BB0B802DBF01FF2793585F4F3AF073
:103840009E3F510578F00C94A31A0C94EE1A5F3F3A
:10385000E4F3983ED4F3869577956795B795F795F9
:103860009F5FC9F7880F911D9695879597F90895E1
:10387000E1E0660F771F881FBB1F6217730784077D
:10388000BA0720F0621B730B840BBA0BEE1F88F78C
:10389000E09508950E94511C6894B1110C94EE1AA1
:1038A00008950E94D31A88F09F5798F0B92F99274E
:1038B000B751B0F0E1F0660F771F881F991F1AF01B
:1038C000BA95C9F714C0B13091F00E94ED1AB1E079
:1038D00008950C94ED1A672F782F8827B85F39F078
:1038E000B93FCCF3869577956795B395D9F73EF4B4
:1038F00090958095709561957F4F8F4F9F4F08955C
:103900000E94121A08F48FEF08950F931F93CF931C
:10391000DF938230910510F482E090E0E0913C0466
:10392000F0913D0430E020E0B0E0A0E0309799F461
:103930002115310509F44AC0281B390B2430310503
:10394000D8F58A819B816115710589F1FB0193830B
:103950008283FE0111C04081518102811381481789
:103960005907E0F04817590799F4109761F012963B
:103970000C93129713961C933296CF01DF91CF913F
:103980001F910F91089500933C0410933D04F4CFD0
:103990002115310551F04217530738F0A901DB0119
:1039A0009A01BD01DF01F801C1CFEF01F9CF90937A
:1039B0003D0480933C04CDCFFE01E20FF31F8193C1
:1039C00091932250310939832883D7CF20913A042B
:1039D00030913B04232B41F42091020130910301EB
:1039E00030933B0420933A0420910001309101016F
:1039F0002115310541F42DB73EB740910401509196
:103A00000501241B350BE0913A04F0913B04E217C9
:103A1000F307A0F42E1B3F0B2817390778F0AC01F1
:103A20004E5F5F4F2417350748F04E0F5F1F5093CE
:103A30003B0440933A04819391939FCFF0E0E0E000
:103A40009CCFCF93DF930097E9F0FC01329713826C
:103A50001282A0913C04B0913D04ED0130E020E0E1
:103A60001097A1F420813181820F931F20913A0495
:103A700030913B042817390709F061C0F0933B04EB
:103A8000E0933A04DF91CF910895EA01CE17DF0762
:103A9000E8F54A815B819E0141155105B1F7E901C5
:103AA000FB83EA8349915991C40FD51FEC17FD0799
:103AB00061F4808191810296840F951FE9019983B9
:103AC0008883828193819B838A83F0E0E0E0129671
:103AD0008D919C9113970097B9F52D913C91119779
:103AE000CD010296820F931F20913A0430913B043E
:103AF0002817390739F6309751F510923D04109286
:103B00003C04B0933B04A0933A04BCCFD383C2835C
:103B100040815181840F951FC817D90761F44E5F0A
:103B20005F4F88819981480F591F518340838A8153
:103B30009B81938382832115310509F0B0CFF093E7
:103B40003D04E0933C049ECFFD01DC01C0CF138215
:103B50001282D7CFB0E0A0E0E0EBFDE10C94011BB6
:103B60008C01009751F4CB010E94851C8C01C80187
:103B7000CDB7DEB7E0E10C941D1BFC01E60FF71F8B
:103B80009C0122503109E217F30708F49DC0D901C6
:103B9000CD91DC911197C617D70798F0C530D105A4
:103BA00030F3CE0104978617970708F3C61BD70B8F
:103BB0002297C193D1936D937C93CF010E94211DD5
:103BC000D6CF5B01AC1ABD0A4C018C0E9D1EA09194
:103BD0003C04B0913D04512C412CF12CE12C109768
:103BE00031F580913A0490913B048815990509F0CC
:103BF0005CC04616570608F058C0809100019091AD
:103C00000101009741F48DB79EB740910401509196
:103C10000501841B950BE817F90708F055C0F093D0
:103C20003B04E0933A04F90171836083A0CF8D9146
:103C30009C91119712966C90129713967C90139703
:103C4000A815B90559F56C0142E0C40ED11CCA147F
:103C5000DB0420F1AC014A195B09DA0112961597D1
:103C600080F06282738251834083D9016D937C938B
:103C7000E114F10471F0D7011396FC93EE931297BF
:103C800076CF22968C0F9D1FF90191838083F301DB
:103C9000EFCFF0933D04E0933C0469CF48165906FA
:103CA00008F42C017D01D3019ACFCB010E94851C21
:103CB0007C01009749F0AE01B8010E94671EC8015F
:103CC0000E94211D870153CF10E000E050CFFB017F
:103CD000DC0102C001900D9241505040D8F7089588
:103CE000FB01DC018D91019080190110D9F3990B32
:103CF0000895FB01DC0101900D920020E1F7089589
:103D000010E0C1EED0E004C0FE010E94BA1B219673
:0A3D1000C23ED107C9F7F894FFCFB7
:103D1A0000003E04800053756E6461790000000063
:103D2A0000004D6F6E646179000000000000547558
:103D3A00657364617900000000005765646E6573FD
:103D4A0064617900000054687572736461790000D7
:103D5A000000467269646179000000000000536146
:103D6A0074757264617900000000C601C901D4014A
:103D7A00E401F101FA01000000007302D30100021C
:103D8A00DB0231020F022302000000000C06DF05ED
:103D9A003B06B505D805C505B6052F2F22225C5C62
:103DAA006208660C6E0A720D7409000D0A007472BC
:103DBA0075650066616C7365006E756C6C003A001F
:103DCA0061006D00630031323A303A300031373ADF
:103DDA00303A30002F004F6B00456D707479496E90
:103DEA0070757400496E636F6D706C657465496EA9
:103DFA0070757400496E76616C6964496E70757489
:103E0A00004E6F4D656D6F727900546F6F44656532
:023E1A00700036
:00000001FF
