:100000000C94AD000C94D5000C94D5000C94D50044
:100010000C94D5000C94D5000C94D5000C94D5000C
:100020000C94D5000C94D5000C94D5000C94D500FC
:100030000C94D5000C94D5000C94D5000C94D500EC
:100040000C94F90A0C94D5000C94690B0C94430B96
:100050000C94D5000C94D5000C94D5000C94D500CC
:100060000C949B0B0C94D50032323A35313A30382F
:10007000004F6374202038203230323400537461D2
:10008000747573203A20525443204C6F737420507F
:100090006F7765722C2073657474696E672074685D
:1000A000652074696D652100537461747573203A1D
:1000B00020436F756C646E27742066696E642052ED
:1000C0005443000000000023002600290054696DFD
:1000D00065203A200044617465203A2000250043E1
:1000E00061706163697479203A2000636D0044692E
:1000F0007374616E6365203A2000000000002400E4
:1001000027002A0000000000250028002B0004041E
:1001100004040404040402020202020203030303AF
:10012000030301020408102040800102040810208B
:100130000102040810200000000800020100000372
:10014000040700000000000000001F1C1F1E1F1EEF
:100150001F1F1E1F1E00FF0C251311241FBECFEFF3
:10016000D8E0DEBFCDBF11E0A0E0B1E0E2E9F0E30E
:1001700002C005900D92A03AB107D9F723E0A0EA9A
:10018000B1E001C01D92AD3BB207E1F710E0CCEA4F
:10019000D0E004C02197FE010E947615CB3AD1072A
:1001A000C9F70E94130E0C943C180C94000008959B
:1001B000089590E0FC01EA5CFE4F2491FC01EE5DA5
:1001C000FE4F3491FC01E25FFE4FE491EE23C9F053
:1001D000222339F0233001F1A8F4213019F1223023
:1001E00029F1F0E0EE0FFF1FEC5FFE4FA591B491F7
:1001F0008FB7F894EC91611126C030953E233C9363
:100200008FBF08952730A9F02830C9F0243049F76E
:10021000809180008F7D03C0809180008F778093D4
:100220008000DFCF84B58F7784BDDBCF84B58F7D31
:10023000FBCF8091B0008F778093B000D2CF8091B8
:10024000B0008F7DF9CF3E2BDACFCF93DF93EC0157
:100250008091890390918A03029749F4C130D105B6
:1002600009F43BC06CF560E0209709F437C0809139
:10027000890390918A03049749F4C130D10509F4A8
:100280005CC00CF037C0209709F442C0809189030C
:1002900090918A03059709F0E5C0CA30D10508F0AE
:1002A000E1C0FE01EA5AFE4F0C947615B501C1017A
:1002B000D201E801030205020C02180229023002F1
:1002C000C230D105A9F060E0C330D10581F680913C
:1002D0008D030E94D90060E006C061E080918D032B
:1002E0000E94D90061E080918F030E94D900BFCFA6
:1002F00061E0EDCFC230D10539F1C330D10509F04D
:10030000C5CF61E080918D030E94D90060E022C0DA
:1003100061E080918D030E94D90060E080918F039D
:100320000E94D90061E0809191030E94D90060E0B1
:10033000809193030E94D900A9CF60E080918D0342
:100340000E94D90061E0EACF60E080918D030E94B5
:10035000D90061E080918F030E94D90060E0809114
:1003600091030E94D90061E0E3CF60E080918D03AA
:100370000E94D90061E080918F030E94D90061E062
:100380000BC060E080918D030E94D90061E08091F4
:100390008F030E94D90060E0809191030E94D900F0
:1003A00060E010C060E080918D030E94D90061E0A0
:1003B00080918F030E94D90060E0809191030E9498
:1003C000D90061E0809193030E94D90061E015C0DB
:1003D00060E080918D030E94D90061E080918F03DD
:1003E0000E94D90060E0809191030E94D90061E0F1
:1003F000809193030E94D90060E080919503DF9182
:10040000CF910C94D90061E0E4CF61E080918D033D
:100410000E94D90060E0E2CF61E080918D030E94EC
:10042000D90060E080918F030E94D90061E0DBCFAA
:1004300061E080918D030E94D90060E080918F037C
:100440000E94D90061E0809191030E94D90060E090
:10045000CFCF61E080918D030E94D90060E08BCF07
:1004600060E0F8CFDF91CF910895CF93DF9390E0D4
:10047000FC01EE5DFE4F2491825F9E4FFC01849152
:100480008823D1F090E0880F991FFC01E650FF4FC0
:10049000A591B491FC01EC5FFE4FC591D49161111F
:1004A0000EC09FB7F8948C91E22FE0958E238C9329
:1004B0002881E223E8839FBFDF91CF9108958FB712
:1004C000F894EC91E22BEC938FBFF6CF3FB7F89402
:1004D0008091000290910102A0910202B09103026A
:1004E00026B5A89B05C02F3F19F00196A11DB11D8F
:1004F0003FBFBA2FA92F982F8827BC01CD01620FCB
:10050000711D811D911D42E0660F771F881F991F85
:100510004A95D1F708954F925F926F927F928F9292
:100520009F92AF92BF92EF92FF920F931F93CF9340
:10053000DF93EC0197FF04C0CC27DD27C81BD90B44
:10054000181619060CF061C081E090E090938203C8
:100550008093810304E010E08AE0E82EF12C2097DC
:1005600009F46FC00E9466028090970390909803F0
:10057000A0909903B0909A032B013C0148185908A8
:100580006A087B088090830390908403A090850381
:10059000B0908603481459046A047B0400F3609306
:1005A0009703709398038093990390939A03809193
:1005B0008B0390918C032091810330918203213031
:1005C000310559F5019690938C0380938B0320910C
:1005D0008703309188038217930721F410928C03CC
:1005E00010928B03219780918B0390918C03209123
:1005F000890330918A03B7012530310509F0B8012C
:100600000E9462150E942501AACF892B09F4A2CF6E
:1006100010928203109281039DCF892B41F4809127
:1006200087039091880390938C0380938B03809130
:100630008B0390918C03019790938C0380938B0391
:10064000D1CFDF91CF911F910F91FF90EF90BF908D
:10065000AF909F908F907F906F905F904F90089594
:100660002FB7F8946091FC017091FD018091FE011B
:100670009091FF012FBF0895AF92BF92CF92DF926A
:10068000EF92FF920F931F93CF93DF936C017B0147
:100690008B01040F151FEB015E01AE18BF08C017D8
:1006A000D10759F06991D601ED91FC910190F0814B
:1006B000E02DC6010995892B79F7C501DF91CF910E
:1006C0001F910F91FF90EF90DF90CF90BF90AF9070
:1006D0000895FC01538D448D252F30E0842F90E048
:1006E000821B930B541710F0CF960895019708952D
:1006F000FC01918D828D981761F0A28DAE0FBF2FF6
:10070000B11D5D968C91928D9F5F9F73928F90E04B
:1007100008958FEF9FEF0895FC01918D828D9817BA
:1007200031F0828DE80FF11D858D90E008958FEFF7
:100730009FEF0895FC01918D228D892F90E0805CC0
:100740009F4F821B91098F73992708958AE792E042
:100750000E949A0321E0892B09F420E0822F08955A
:1007600080E090E0892B29F00E94A60381110C946F
:1007700000000895FC01A48DA80FB92FB11DA35A44
:10078000BF4F2C91848D90E001968F739927848FB1
:10079000A689B7892C93A089B1898C9183708064D4
:1007A0008C93938D848D981306C00288F389E02D75
:1007B00080818F7D80830895EF92FF920F931F9326
:1007C000CF93DF93EC0181E0888F9B8D8C8D981304
:1007D0001AC0E889F989808185FF15C09FB7F89410
:1007E000EE89FF896083E889F9898081837080645C
:1007F00080839FBF81E090E0DF91CF911F910F91A7
:10080000FF90EF900895F62E0B8D10E00F5F1F4FB5
:100810000F731127E02E8C8D8E110CC00FB607FCC4
:10082000FACFE889F989808185FFF5CFCE010E9452
:10083000BA03F1CFEB8DEC0FFD2FF11DE35AFF4F03
:10084000F0829FB7F8940B8FEA89FB8980818062E0
:10085000CFCF0F931F93CF93DF938C01D0E0C0E0F5
:10086000F801EC0FFD1F6491662341F08AE792E0E6
:100870000E94DC03892B11F02196F2CFCE01DF918B
:10088000CF911F910F910895CF93DF93EC01888D45
:100890008823B9F0AA89BB89E889F9898C9185FDFB
:1008A00003C0808186FD0DC00FB607FCF7CF8C9189
:1008B00085FFF2CF808185FFEDCFCE010E94BA0384
:1008C000E9CFDF91CF910895FC01908190539A3048
:1008D00008F090E0818180532AE0929F800D1124DE
:1008E0000895DC0150E0EAE4F1E081E0861730F49D
:1008F0009491490F511D8F5F3196F8CF633038F0D6
:10090000CD0183709927892B11F44F5F5F4F9D01B3
:100910002D5F3F4F36952795369527956DE671E00B
:10092000A69FC001A79F900DB69F900D112401971F
:10093000820F931F840F951F08952091C101260FE8
:100940003327331F21323105ECF420915002FC0192
:1009500090E080E0243069F082E00895A091C10128
:100960002191AC014F555E4FA40FB52FB11D2C93B3
:100970000196861798F38091C101680F6093C101B9
:1009800080E0089581E008951092500281E0809304
:100990004F0210922A0261E082E10E94D90061E0D8
:1009A00083E10E94D900E9EBF0E080818E7F8083B3
:1009B00080818D7F808388E48093B80085E4809374
:1009C000BC000895CF93DF9391E09093A00188231A
:1009D000B9F0C091B800D091BA008091BC008A7B78
:1009E0008093BC0060E082E10E94D90060E083E176
:1009F0000E94D9000E94C404D093BA00C093B800EA
:100A0000DF91CF9108958F929F92AF92BF92CF9234
:100A1000DF92EF92FF920F931F93CF93DF93D091CA
:100A20007902D13208F0D7C0182FC09178020E9405
:100A300066026B017C018091500281116BC082E0E3
:100A40008093500210934F028FEF80934E021092CA
:100A50004D02D0934C02A8E5B2E0ECE2F2E080E077
:100A6000D81391C010922B0280912B02CC0FC82B6F
:100A7000C0932B0280912A02813009F088C0109225
:100A80002A020E9466026B017C0180912B028093F6
:100A9000BB008091520290915302A0915402B091F8
:100AA0005502892B8A2B8B2BA1F00E9466020091A4
:100AB00052021091530220915402309155026C1948
:100AC0007D098E099F09061717072807390708F4BB
:100AD00042C08091BC0083FDD8CF85EC8093BC00E0
:100AE0000E9466026B017C0180915002823009F401
:100AF00050C080914E028F3F09F46FC080914E022A
:100B0000803209F46CC080914E02803309F469C0D0
:100B100084E026C08091520290915302A091540229
:100B2000B0915502892B8A2B8B2B09F484CF0E941C
:100B300066028090520290905302A0905402B090AE
:100B400055026C197D098E099F0986169706A8061D
:100B5000B90608F070CF809151020E94E20485E04E
:100B6000109257021092790210925602DF91CF91A3
:100B70001F910F91FF90EF90DF90CF90BF90AF90BB
:100B80009F908F9008959D9191938F5F69CF85EE8F
:100B9000A5CF8091520290915302A0915402B0913E
:100BA0005502892B8A2B8B2B09F49ECF0E9466025B
:100BB000009152021091530220915402309155023B
:100BC0006C197D098E099F09061717072807390731
:100BD00008F08ACFC0CF81E0C3CF80E0C1CF82E0F0
:100BE000BFCF83E0BDCFCF93DF93EC018B81882310
:100BF000A1F0888191E09093560280937802109240
:100C000057021092790281E00E94030591E0811160
:100C100090E0892FDF91CF910895109209021092F0
:100C2000080210925702109279020E94C40487EDC4
:100C300090E0909307028093060288ED90E09093F5
:100C400005028093040281E08B83CE010E94F305AC
:100C5000982F8111CECFDDCF0895E09109028091C8
:100C60000802E81730F4F0E0E65FFD4F808190E085
:100C700008958FEF9FEF08959091090280910802E7
:100C80002FEF3FEF981748F4E92FF0E0E65FFD4FB4
:100C9000208130E09F5F90930902C90108958091FF
:100CA000080290910902891B990B0895CF92DF9257
:100CB000EF92FF920F931F93CF93DF937C01CB01B1
:100CC0008A0120915602222389F0EB016B01C40EA8
:100CD000D51ECC15DD0569F06991D701ED91FC9128
:100CE0000190F081E02DC7010995F3CF642F0E9498
:100CF0009D04C801DF91CF911F910F91FF90EF905C
:100D0000DF90CF900895CF93DF931F92CDB7DEB7DA
:100D10006983209156022223F9F020917902203232
:100D200058F021E030E0FC013383228390E080E042
:100D30000F90DF91CF91089580915702E82FF0E056
:100D4000E85AFD4F998190838F5F8093570280937B
:100D5000790281E090E0ECCF61E0CE0101960E9443
:100D60009D04F7CF90E080E008951F93CF93DF9329
:100D7000DC011496ED91FC91E417F50710F490E076
:100D80001FC0122FEA01FC0181819281208131E094
:100D900030935602209378021092570210927902F3
:100DA000DC01ED91FC910280F381E02D0995C817DB
:100DB000D90729F7812F0E94030591E08111DFCF28
:100DC000892FDF91CF911F9108952F923F924F92DB
:100DD0005F926F927F928F929F92AF92BF92CF92CB
:100DE000DF92EF92FF920F931F93CF93DF935C01FB
:100DF0001B016A01F12CE12CD50114968D919C9177
:100E000086010E191F098017910708F48C01F5015E
:100E1000D0810E9466022B013C0180915002811119
:100E200072C0C02F013208F0C0E2F1E0F09350022E
:100E300021E0C601801B910BE816F90608F420E0BA
:100E400020934F028FEF80934E0210924D028C0F31
:100E500080934C02A1E0A0932B0280912B02DD0F26
:100E6000D82BD0932B0280912A02813009F090C0B8
:100E700010922A020E9466022B013C0180912B02F3
:100E80008093BB008091520290915302A091540232
:100E9000B0915502892B8A2B8B2BA1F00E94660200
:100EA00020915202309153024091540250915502C8
:100EB00064197509860997092617370748075907DE
:100EC00008F442C08091BC0083FDD8CFB5ECB0934C
:100ED000BC000E9466022B013C01809150028130CF
:100EE00009F45AC080914D028C1710F4C0914D0244
:100EF000ACE2B2E0EAE0F2E080E08C1751F19D91C3
:100F000091938F5FFACF8091520290915302A091FA
:100F10005402B0915502892B8A2B8B2B09F47DCF7B
:100F20000E94660220915202309153024091540275
:100F300050915502641975098609970926173707D4
:100F40004807590708F069CF809151020E94E204D6
:100F5000C0E010920902C0930802C017110609F000
:100F600057C041018E0C9F1CE401CE0188199909DC
:100F70008017910798F5D50111968D919C91DC0110
:100F8000ED91FC910284F385E02D09958993EDCFD5
:100F9000E5EEE093BC009DCF809152029091530208
:100FA000A0915402B0915502892B8A2B8B2B09F406
:100FB00094CF0E94660220915202309153024091D8
:100FC000540250915502641975098609970926172C
:100FD00037074807590708F080CFB6CFE00EF11E5B
:100FE000EC14FD0408F408CF81E0DF91CF911F914C
:100FF0000F91FF90EF90DF90CF90BF90AF909F90B8
:101000008F907F906F905F904F903F902F900895BA
:1010100080E0EBCF0F931F93CF93DF9300D0CDB73A
:10102000DEB78C018FE08A8321E041E050E0BE0111
:101030006E5F7F4FF801808191810E94B50641E08B
:1010400050E0BE016F5F7F4FF801808191810E9467
:10105000E50689810F900F90DF91CF911F910F913D
:101060000895EF92FF920F931F93CF93DF9300D0D9
:1010700000D000D01F92CDB7DEB78C011982E0906E
:101080007703F090780320E041E050E0BE016F5F0D
:101090007F4FC7010E94B506882341F047E050E02A
:1010A000BE016F5F7F4FC7010E94E506E981EF77C0
:1010B000FA81FB805D814E814F778F81282F30E050
:1010C00094E0359527959A95E1F7922F990F990F0E
:1010D000291B220F280FD8012C93842F90E024E0A5
:1010E000959587952A95E1F7982F990F990F891B68
:1010F000880F840F11968C931197652F70E034E060
:10110000759567953A95E1F7862F880F880F681BCC
:10111000660F650F12966C9312974F2D50E064E0A6
:10112000559547956A95E1F7842F880F880F481BDE
:10113000440F4F0D13964C9313972F2F30E074E00C
:10114000359527957A95E1F7822F880F880F281B10
:10115000220F2F0F14962C9314978E2F90E0F4E00B
:1011600095958795FA95E1F7982F990F990F891B17
:10117000880F8E0F15968C93C80127960FB6F8949A
:10118000DEBF0FBECDBFDF91CF911F910F91FF90BA
:10119000EF900895FC0101900020E9F73197AF012D
:1011A000481B590BBC018AE792E00C943C03CF9397
:1011B000DF930E942904EC018EE791E00E94CA08A7
:1011C0008C0F9D1FDF91CF9108958F929F92AF92C8
:1011D000BF920F931F93CF93DF93CDB7DEB7A19745
:1011E0000FB6F894DEBF0FBECDBF19A2423008F48F
:1011F0004AE08E010F5D1F4F842E912CB12CA12C43
:10120000A50194010E941115E62FB901CA01EA3027
:10121000F4F4E05DD801EE938D01232B242B252BD4
:1012200079F790E080E0109719F0CD010E94CA088C
:10123000A1960FB6F894DEBF0FBECDBFDF91CF9160
:101240001F910F91BF90AF909F908F900895E95C90
:10125000E1CFCF93DF93FC0144815581608171819F
:101260008AE792E00E943C03EC018EE791E00E9445
:10127000CA088C0F9D1FDF91CF910895CF93DF9304
:10128000EC0188819981009711F00E94DD16198286
:1012900018821D821C821B821A82DF91CF910895D1
:1012A000FC0180819181009711F00C94DD16089566
:1012B0000F931F93CF93DF93EC018881998100975F
:1012C00059F02A813B812617370730F081E0DF9102
:1012D000CF911F910F9108958B016F5F7F4F0E94F7
:1012E0006617009759F0998388831B830A832C81A2
:1012F0003D81232B59F7FC011082E8CF80E0E7CF36
:10130000EF92FF920F931F93CF93DF9361157105B7
:1013100041F480E0DF91CF911F910F91FF90EF900A
:10132000089541155105B1F07B01EC010C811D813F
:10133000040F151FB8010E945809882351F3288112
:1013400039818C819D81B701820F931F0E943518CE
:101350001D830C8381E0DECFCF93DF93EC01FB0193
:1013600001900020E9F73197AF01461B570B0E940F
:101370008009811103C0CE010E943E09CE01DF9198
:10138000CF910895CF93DF93EC01FB014481558108
:10139000608171810E948009811103C0CE010E9489
:1013A0003E09CE01DF91CF910895EF92FF920F9306
:1013B0001F93CF93DF93EC017B018A01BA010E9456
:1013C000580981110BC0CE010E943E09CE01DF9168
:1013D000CF911F910F91FF90EF9008951D830C8383
:1013E000B701888199810E943518F0CFEF92FF9262
:1013F0000F931F93CF93DF93CDB7DEB729970FB627
:10140000F894DEBF0FBECDBF8C01862FF80111828C
:10141000108213821282158214824AE09E012F5F8D
:101420003F4F7901B90190E00E946213F7010190EA
:101430000020E9F73197AF014E195F09B701C801E4
:101440000E94D50929960FB6F894DEBF0FBECDBF16
:10145000DF91CF911F910F91FF90EF900895FB01C5
:10146000DC0111961C921E9213961C921E921297EA
:1014700015961C921E9214978617970749F0608163
:1014800071816115710521F0448155810C94D50954
:1014900008950F931F93CF93DF93CDB7DEB7AA972D
:1014A0000FB6F894DEBF0FBECDBF8C01CE010796FC
:1014B0000E9431086C85CE0101960E94F609CE018A
:1014C00043960E9431086F89CE010D960E94F6095D
:1014D000CE0185960E94310868A5CE014F960E94E4
:1014E000F609BE01615E7F4FCE0149960E942F0A28
:1014F00061E871E0CE0149960E94AC09BE01635FCC
:101500007F4F0E94C20961E871E00E94AC09BE01F0
:101510006F5F7F4F0E94C209BC01C8010E942F0A61
:10152000CE0149960E945009CE014F960E94500963
:10153000CE010D960E945009CE0101960E945009DD
:10154000C801AA960FB6F894DEBF0FBECDBFDF91DB
:10155000CF911F910F910895FC0111821082138287
:101560001282158214826115710551F0FB01019000
:101570000020E9F73197AF01461B570B0C94D509B2
:10158000089585ED8093BC008091520290915302A2
:10159000A0915402B09155020796A11DB11D23E000
:1015A000B695A795979587952A95D1F72091BC0078
:1015B00024FD03C0109250020895409152025091B0
:1015C00053026091540270915502452B462B472BD4
:1015D00069F30097A105B10541F02AE22A95F1F7D8
:1015E00000C00197A109B109E1CF809151020C948B
:1015F000E2041F920F920FB60F9211242F933F9384
:101600008F939F93AF93BF938091FC019091FD01C5
:10161000A091FE01B091FF013091FB0123E0230F67
:101620002D3758F50196A11DB11D2093FB01809324
:10163000FC019093FD01A093FE01B093FF01809106
:10164000000290910102A0910202B0910302019662
:10165000A11DB11D8093000290930102A09302028C
:10166000B0930302BF91AF919F918F913F912F91C2
:101670000F900FBE0F901F90189526E8230F02962B
:10168000A11DB11DD2CF1F920F920FB60F92112440
:101690002F933F934F935F936F937F938F939F937A
:1016A000AF93BF93EF93FF938AE792E00E94BA0350
:1016B000FF91EF91BF91AF919F918F917F916F912A
:1016C0005F914F913F912F910F900FBE0F901F9000
:1016D00018951F920F920FB60F9211242F938F938C
:1016E0009F93EF93FF93E0918A02F0918B028081A8
:1016F000E0919002F091910282FD1BC09081809157
:1017000093028F5F8F7320919402821741F0E091D2
:101710009302F0E0E658FD4F958F80939302FF917E
:10172000EF919F918F912F910F900FBE0F901F906F
:1017300018958081F4CF1F920F920FB60F9211244B
:101740002F933F934F935F936F937F938F939F93C9
:10175000AF93BF93EF93FF938091B900887F80365A
:1017600009F44AC0F0F5883209F4A7C018F58031B1
:1017700009F49BC0B8F4882309F4F9C0883009F44F
:1017800094C0FF91EF91BF91AF919F918F917F9105
:101790006F915F914F913F912F910F900FBE0F90DE
:1017A0001F901895883109F488C0803251F78093D2
:1017B0004E0214C0803409F49DC040F48033B9F364
:1017C0008833F9F680934E0285ECB0C0803509F479
:1017D00085C0883509F496C0883499F60E94C10AFC
:1017E000D0CF883909F48CC038F5883729F050F407
:1017F000883611F0803729F683E0809350021092EA
:10180000E30157C0883809F47BC0803919F080386B
:1018100009F0B7CF8091E301803208F071C0E09108
:10182000E30181E08E0F8093E3018091BB00F0E043
:10183000ED53FE4F80833DC0803B39F0E0F4803AA9
:1018400009F479C0883A09F09CCF84E08093500273
:101850001092C2011092C101E0910602F0910702BC
:1018600009958091C10181110FC081E08093C10170
:101870001092A10109C0803C09F4A6CF883C09F46C
:10188000A3CF883B09F07DCFE091C20181E08E0FAC
:101890008093C201F0E0EF55FE4F80818093BB0042
:1018A0009091C2018091C10129C080912B02809347
:1018B000BB0085EC8093BC0064CF90914D02809179
:1018C0004C02981758F5E0914D0281E08E0F8093FD
:1018D0004D02F0E0E45DFD4F8081E9CFE0914D02E3
:1018E00081E08E0F80934D028091BB00F0E0E45DBB
:1018F000FD4F808390914D0280914C029817C8F261
:1019000085E8D8CFE0914D0281E08E0F80934D02A3
:101910008091BB00F0E0E45DFD4F808380914F0239
:1019200081115CCF81E080932A0284EA8093BC001D
:101930001092500226CF85EC8093BC00109250028A
:101940008091E301803230F4E091E301F0E0ED5367
:10195000FE4F10826091E30170E0E0910402F0918B
:10196000050283EC91E009951092E3010ACF1092F1
:101970004E0234CFCF92DF92EF92FF920F931F93DC
:10198000E82FF92F05C0015011092109310961F132
:10199000908196239417B9F305C0015011092109CC
:1019A000310911F1908196239413F7CFC12CD12CDA
:1019B000E12CF12C0AC08FEFC81AD80AE80AF80AFD
:1019C0000C151D052E053F0579F0808186238417AF
:1019D00091F36C2D7D2D8E2D9F2D1F910F91FF90DA
:1019E000EF90DF90CF90089560E070E080E090E0AD
:1019F0001F910F91FF90EF90DF90CF90089510927C
:101A00007D0210927C0288EE93E0A0E0B0E080932B
:101A10007E0290937F02A0938002B09381022EE514
:101A200031E030937B0220937A0225EC30E0309352
:101A300087022093860224EC30E0309389022093C1
:101A4000880220EC30E030938B0220938A0221EC54
:101A500030E030938D0220938C0222EC30E0309302
:101A60008F0220938E0226EC30E030939102209377
:101A7000900210929302109294021092950210928A
:101A8000960210921A031092190380931B039093ED
:101A90001C03A0931D03B0931E0380E791E0909375
:101AA0001803809317032091B1033091B203409142
:101AB000B3035091B4036091B5037091B603809164
:101AC000B7039091B803A1E00E947C152093B10365
:101AD0003093B2034093B3035093B4036093B503C0
:101AE0007093B6038093B7039093B8030E94881550
:101AF00091F46BE871E08FE993E00E94AC0A63E82F
:101B000071E085EA93E00E94AC0A6AE871E08BEA32
:101B100093E00E94AC0A10928C0310928B031092F7
:101B200082031092810310929703109298031092EF
:101B3000990310929A0380E098E090938803809331
:101B4000870388E090E090938E0380938D038AE072
:101B500090E09093900380938F0389E090E09093BE
:101B60009203809391038BE090E090939403809391
:101B7000930361E088E00E94350261E080918F0369
:101B80000E94350261E0809191030E94350261E07C
:101B9000809193030E943502109296031092950350
:101BA00084E090E090938A038093890380E098E03A
:101BB000A0E0B0E080939B0390939C03A0939D03CF
:101BC000B0939E0385E080937F0384E0809380033D
:101BD00084E5E6E0F1E0A3E2B3E001900D928A959E
:101BE000E1F7109278031092770310927E0310921F
:101BF0007D0310927C0310927903EAE4F1E081E026
:101C00008C3049F09491823009F49F5F21E0280FD5
:101C10003196992331F080937A0381E080937B039E
:101C20000895822FEDCFCF93DF93CDB7DEB7EB973B
:101C30000FB6F894DEBF0FBECDBF789484B5826036
:101C400084BD84B5816084BD85B5826085BD85B560
:101C5000816085BD80916E00816080936E001092DE
:101C60008100809181008260809381008091810059
:101C700081608093810080918000816080938000EA
:101C80008091B10084608093B1008091B000816048
:101C90008093B00080917A00846080937A00809174
:101CA0007A00826080937A0080917A0081608093CC
:101CB0007A0080917A00806880937A001092C10047
:101CC000E0918A02F0918B0282E08083E0918602AB
:101CD000F09187021082E0918802F09189028FECE6
:101CE000808310929202E0918E02F0918F0286E042
:101CF0008083E0918C02F0918D02808180618083ED
:101D0000E0918C02F0918D02808188608083E09167
:101D10008C02F0918D02808180688083E0918C023A
:101D2000F0918D0280818F7D808361E083E00E944D
:101D3000350261E082E00E94350261E080917F031C
:101D40000E94350260E0809180030E94350220915C
:101D5000870330918803032E000C440B550B60E081
:101D600077E883E993E00E94B014CA01B9012AE040
:101D700030E040E050E00E94B014209383033093A1
:101D80008403409385035093860347E1842E43E008
:101D9000942E50E2252E312C68EDA62E60E0B62E52
:101DA00001E08091770390917803009711F00E94F1
:101DB000DD1686E090E00E9441163C0128E6FC0119
:101DC00020839282818213823582248290937803C9
:101DD0008093770310920902109208021092570222
:101DE000109279020E94C40487ED90E0909307025C
:101DF00080930602B0920502A0920402F3010383CD
:101E0000C3010E94F305782E811129C088EA90E071
:101E10000E94D7080E9466026B017C0134E6432EC3
:101E2000512C612C712C0E9466026C197D098E095F
:101E30009F09683E734081059105A8F3F1E04F1AB0
:101E400051086108710828EEC20E23E0D21EE11C81
:101E5000F11C411451046104710429F7A2CF87E7F2
:101E600093E00E940A0890E0880F892F881F990B41
:101E7000892B09F4BFC08DE790E00E94D7084BE0A2
:101E800050E061E770E0CE0101967C010E94591399
:101E9000CE010A960E946404082FE981E154E331DF
:101EA00018F50E2E000CFF0BE85AF04F0C94761527
:101EB000E311740F740FF711740FF911740F740F8D
:101EC000740F6B0F740F740FEA11F511F311740F87
:101ED000740F740FF1118A8111E0813629F08B8122
:101EE00016E08E3609F017E0CE0105960E946404D4
:101EF000D82E48E050E068E670E0C7010E94591310
:101F0000C7010E946404C82ECE0104960E94640496
:101F1000B82ECE0107960E946404382F88E0F7019E
:101F200011928A95E9F72AE0832F622F0E944215C9
:101F3000982F880F890F880F830F8A838B2D0E941B
:101F40004215982F880F890F880F8B0D8B838C2D4E
:101F50000E944215982F880F890F880F8C0D8C8353
:101F60004D2D612F802F90E00E947104069667E04E
:101F700070E00E944E15811101C087E08D832AE038
:101F80008D2D622F0E944215982F880F890F880F80
:101F90008D0D8E83812F0E944215982F990F890FE6
:101FA000880F180F1F83802F0E944215982F880FCB
:101FB000890F880F800F888721E048E050E0B70143
:101FC00080917703909178030E94B50687E793E0AC
:101FD0000E940A089FE09A8B8F778B8B21E042E06A
:101FE00050E0BE016E5E7F4F809177039091780341
:101FF0000E94B506CE0101967C010E94300300913B
:10200000E4011091E5012091E6013091E701601BA8
:10201000710B820B930B6436710581059105C0F03D
:102020000E9430036093E4017093E5018093E60120
:102030009093E7018091F9019091FA0197FDDBC13E
:1020400060E083E00E94D90061E082E00E94D90054
:102050000E9430030091E8011091E9012091EA010A
:102060003091EB01601B710B820B930B6436710591
:102070008105910508F479C00E9430036093E8015E
:102080007093E9018093EA019093EB0160E0809105
:102090007F030E94D90083E090E00197F1F761E0AF
:1020A00080917F030E94D90083E290E00197F1F7CD
:1020B00060E080917F030E94D9008091800390E0CE
:1020C000FC01EE5DFE4F6491FC01E25FFE4FE49186
:1020D000F0E0EE0FFF1FED53FF4F8591949100E468
:1020E00012E42FE030E0462F0E94BA0C6115710512
:1020F0008105910529F06F5F7F4F8F4F9F4F9F7034
:102100000E94911326E933E44BE05DE30E94F21351
:1021100020E030E040E05FE30E94F2136093EC01C6
:102120007093ED018093EE019093EF010E940116F0
:102130009B01AC012351310941095109A4E6B0E0EA
:102140000E94CF1422EF3FEF4FEF5FEF0E94B014D9
:102150002536310514F024E630E037FF02C030E0C8
:1021600020E03093FA012093F9010E94300300919E
:10217000F0011091F1012091F2013091F301601B07
:10218000710B820B930B683E73408105910508F437
:10219000EAC00E9430036093F0017093F1018093D4
:1021A000F2019093F3018EEE90E00E94290480905A
:1021B000EC019090ED01A090EE01B090EF01A5012F
:1021C0009401C501B4010E943C16882309F419C189
:1021D00081E991E00E94CA088BEE90E00E94D70846
:1021E0008FED90E00E9429042090F9013090FA01CF
:1021F000032C000C440855084AE0C201B10157FE07
:102200000DC06DE28AE792E00E94DC036627772723
:10221000CB0162197309840995094AE00E94E50817
:102220008DED90E00E94D7088EE791E00E94CA08E9
:10223000C7010E94310889814B816A8190E00E9428
:102240007104069667E070E00E944E152CE0289F0E
:10225000B001299F700D11246D5D7C4FCE01429617
:102260000E94AC0ACE0142960E942909CE014296F4
:102270000E94500985ED90E00E942904CE018A96C3
:102280000E9431088AA590E019AA18AA1BAA1AAAC6
:102290001DAA1CAA4AE0B7018053984F0E946213FE
:1022A000F70101900020E9F73197AF014E195F095E
:1022B000B701CE01C0960E94D509CE014E960E946C
:1022C000310868A1CE0184960E94F609C7010E94D8
:1022D00031086A81CE0142960E94F609BE016E5E07
:1022E0007F4FCE0148960E942F0A6DE971E0CE0122
:1022F00048960E94AC09BE016C5D7F4F0E94C209E6
:102300006DE971E00E94AC09BE01605D7F4F0E94E3
:10231000C209BC01CE01C6960E942F0ACE01489682
:102320000E945009CE0142960E945009CE01849627
:102330000E945009CE01C0960E945009CE01C69657
:102340000E942909CE01C6960E9450098DEC90E0AA
:102350000E942904C7010E94490AC7010E94290955
:10236000C7010E9450098091F9019091FA0197FDEF
:1023700056C10FE913E081EBC82E83E0D82E552417
:102380005394B801CE0142960E942F0AC7010E94C1
:10239000490A2D813E818E899F892817390709F0C6
:1023A000D3C089819A816A897B89009709F4BBC06F
:1023B0006115710509F044C1232B09F444C1FC01E6
:1023C000808190E0BDC08B8114E0823709F48CCD10
:1023D00018E08ACD8B8113E0823709F485CD15E0B2
:1023E00083CD19E081CD1AE07FCD1BE07DCD1CE0CF
:1023F0007BCD12E079CD61E083E00E94D90060E0FE
:1024000024CE14012501E89457F82FEF3FEF4FE752
:102410005FE7C201B1010E943C1681110DC02FEF90
:102420003FEF4FE75FE7C201B1010E948C1318161E
:102430001CF485E991E0CECE2FEF3FEF4FE75FE44C
:10244000C501B4010E94371618161CF489E991E001
:10245000C1CE2FEF3FEF4FE75FECC501B4010E9403
:102460008C1387FDF3CF20E030E0A901C501B40152
:102470000E948C1387FF09C06DE28AE792E00E94F8
:10248000DC03B7FAB094B7F8B0942AE037ED43EA2A
:102490005BE3C501B4010E9495154B015C010E94EC
:1024A00008161B012C010E9491139B01AC01C50170
:1024B000B4010E9494154B015C014AE0C201B101D4
:1024C0000E94E5086EE28AE792E00E94DC0320E0C9
:1024D00030E040E251E4C501B4010E94F2134B0127
:1024E0005C010E9408161B01512C412C4AE0C201DC
:1024F000B1010E94E508C201B1010E9491139B0144
:10250000AC01C501B4010E94941520E030E040E226
:1025100051E40E94F2130E94081690E080E04AE025
:102520000E94E50859CE6115710509F48CC0232B72
:1025300009F489C0FB01808190E091958195910912
:1025400066246394892B09F0612CC7010E9450090D
:10255000662061F05092F8010E9430036093F4010C
:102560007093F5018093F6019093F701CE014296A6
:102570000E9450090A5F1F4FC016D10609F001CF13
:102580008091F801882309F44AC00E94300320900A
:10259000F4013090F5014090F6015090F701621976
:1025A000730984099509693B7B408105910578F49D
:1025B00060919B0370919C0380919D0390919E0379
:1025C0000E9491130E940116CB010E948B020E946F
:1025D00030036219730984099509613777418105D0
:1025E0009105E8F00E943003621973098409950986
:1025F000693273428105910590F460919B0370915B
:102600009C0380919D0390919E030E94911390588A
:102610000E940116CB010E948B021092F8018BE8F8
:1026200091E00197F1F780E090E0892B09F4E5CC87
:102630000E94A603882309F4E0CC0E940000DDCCB0
:102640000E942C187DCF672C80CF2091B103309150
:10265000B2034091B3035091B4036091B5037091FC
:10266000B6038091B7039091B803AFEF0E947C1539
:102670002093B1033093B2034093B3035093B40358
:102680006093B5037093B6038093B7039093B80338
:10269000A0E00E94881561F48BEA93E00E94500943
:1026A00085EA93E00E9450098FE993E00C94500969
:1026B0000895FB01DC0102C005900D92415050408D
:1026C000D8F70895BB27FB015527AA27880F991F24
:1026D000AA1FA41710F0A41B83955051B9F7A05D51
:1026E000AA3308F0A95DA193009779F7B111B193CE
:1026F0001192CB010C947C13DC01FC01672F7191CA
:102700007723E1F7329704C07C916D9370836291D7
:10271000AE17BF07C8F308950E94CE1308F481E0F6
:102720000895E89409C097FB3EF4909580957095C4
:1027300061957F4F8F4F9F4F9923A9F0F92F96E90D
:10274000BB279395F695879577956795B795F11182
:10275000F8CFFAF4BB0F11F460FF1BC06F5F7F4F1F
:102760008F4F9F4F16C0882311F096E911C0772331
:1027700021F09EE8872F762F05C0662371F096E83A
:10278000862F70E060E02AF09A95660F771F881F09
:10279000DAF7880F9695879597F90895990F0008AD
:1027A000550FAA0BE0E8FEEF16161706E807F90723
:1027B000C0F012161306E407F50798F0621B730BBE
:1027C000840B950B39F40A2661F0232B242B252B3F
:1027D00021F408950A2609F4A140A6958FEF811DE2
:1027E000811D08950E9405140C9476140E946814AB
:1027F00038F00E946F1420F0952311F00C945F14B0
:102800000C94651411240C94AA140E94871470F37C
:10281000959FC1F3950F50E0551F629FF001729F85
:10282000BB27F00DB11D639FAA27F00DB11DAA1F94
:10283000649F6627B00DA11D661F829F2227B00DE1
:10284000A11D621F739FB00DA11D621F839FA00D6C
:10285000611D221F749F3327A00D611D231F849FBC
:10286000600D211D822F762F6A2F11249F57504013
:102870009AF0F1F088234AF0EE0FFF1FBB1F661F8E
:10288000771F881F91505040A9F79E3F510580F057
:102890000C945F140C94AA145F3FE4F3983ED4F3B5
:1028A000869577956795B795F795E7959F5FC1F7FB
:1028B000FE2B880F911D9695879597F9089597F9A6
:1028C0009F6780E870E060E008959FEF80EC0895D6
:1028D00000240A94161617061806090608950024FF
:1028E0000A9412161306140605060895092E039479
:1028F000000C11F4882352F0BB0F40F4BF2B11F4ED
:1029000060FF04C06F5F7F4F8F4F9F4F089557FD4B
:102910009058440F551F59F05F3F71F04795880F4D
:1029200097FB991F61F09F3F79F0879508951216E4
:1029300013061406551FF2CF4695F1DF08C0161690
:1029400017061806991FF1CF869571056105089441
:102950000895E894BB2766277727CB0197F9089558
:10296000052E97FB1EF400940E94C71457FD07D054
:102970000E94111507FC03D04EF40C94C714509517
:102980004095309521953F4F4F4F5F4F089590955B
:102990008095709561957F4F8F4F9F4F08950E944E
:1029A0003315A59F900DB49F900DA49F800D911D90
:1029B000112408952F923F924F925F926F927F92CF
:1029C0008F929F92AF92BF92CF92DF92EF92FF923F
:1029D0000F931F93CF93DF93CDB7DEB7CA1BDB0BEB
:1029E0000FB6F894DEBF0FBECDBF09942A88398890
:1029F00048885F846E847D848C849B84AA84B98497
:102A0000C884DF80EE80FD800C811B81AA81B981A2
:102A1000CE0FD11D0FB6F894DEBF0FBECDBFED01B6
:102A20000895A1E21A2EAA1BBB1BFD010DC0AA1F0F
:102A3000BB1FEE1FFF1FA217B307E407F50720F027
:102A4000A21BB30BE40BF50B661F771F881F991FA2
:102A50001A9469F760957095809590959B01AC01EB
:102A6000BD01CF010895A29FB001B39FC001A39FF4
:102A7000700D811D1124911DB29F700D811D1124B7
:102A8000911D0895991B79E004C0991F961708F0CD
:102A9000961B881F7A95C9F780950895AA1BBB1BC2
:102AA00051E107C0AA1FBB1FA617B70710F0A61B4E
:102AB000B70B881F991F5A95A9F780959095BC016F
:102AC000CD01089597FB072E16F4009407D077FDEB
:102AD00009D00E944E1507FC05D03EF490958195D3
:102AE0009F4F0895709561957F4F0895EE0FFF1FDA
:102AF0000590F491E02D09940024A7FD00942A0F7D
:102B0000301D401D501D601D701D801D901D0895BD
:102B10000024A7FD00942A173005400550056005E4
:102B200070058005900508955058BB27AA270E947C
:102B3000AC150C9476140E94681438F00E946F143F
:102B400020F039F49F3F19F426F40C9465140EF428
:102B5000E095E7FB0C945F14E92F0E94871458F36B
:102B6000BA17620773078407950720F079F4A6F572
:102B70000C94A9140EF4E0950B2EBA2FA02D0B0186
:102B8000B90190010C01CA01A0011124FF27591BB2
:102B900099F0593F50F4503E68F11A16F040A22FB8
:102BA000232F342F4427585FF3CF46953795279529
:102BB000A795F0405395C9F77EF41F16BA0B620B28
:102BC000730B840BBAF09150A1F0FF0FBB1F661F6F
:102BD000771F881FC2F70EC0BA0F621F731F841FB2
:102BE00048F4879577956795B795F7959E3F08F0D8
:102BF000B0CF9395880F08F09927EE0F979587959A
:102C000008950E9408166894B1110C94AA140895AE
:102C10000E948F1488F09F5798F0B92F9927B751C9
:102C2000B0F0E1F0660F771F881F991F1AF0BA9570
:102C3000C9F714C0B13091F00E94A914B1E0089511
:102C40000C94A914672F782F8827B85F39F0B93F03
:102C5000CCF3869577956795B395D9F73EF4909523
:102C60008095709561957F4F8F4F9F4F08950E947B
:102C7000CE1308F48FEF08950E94CE13880B990BA2
:102C800008950F931F93CF93DF938230910510F433
:102C900082E090E0E091BB03F091BC0330E020E0E3
:102CA000B0E0A0E0309799F42115310509F44AC04D
:102CB000281B390B24303105D8F58A819B81611599
:102CC000710589F1FB0193838283FE0111C040816C
:102CD00051810281138148175907E0F048175907BD
:102CE00099F4109761F012960C93129713961C9317
:102CF0003296CF01DF91CF911F910F9108950093EC
:102D0000BB031093BC03F4CF2115310551F04217DA
:102D1000530738F0A901DB019A01BD01DF01F80179
:102D2000C1CFEF01F9CF9093BC038093BB03CDCF0C
:102D3000FE01E20FF31F81939193225031093983F1
:102D40002883D7CF2091B9033091BA03232B41F4C4
:102D500020910201309103013093BA032093B9030B
:102D600020910001309101012115310541F42DB769
:102D70003EB74091040150910501241B350BE091B1
:102D8000B903F091BA03E217F307A0F42E1B3F0B2F
:102D90002817390778F0AC014E5F5F4F24173507CD
:102DA00048F04E0F5F1F5093BA034093B9038193CD
:102DB00091939FCFF0E0E0E09CCFCF93DF9300971B
:102DC000E9F0FC01329713821282A091BB03B0910B
:102DD000BC03ED0130E020E01097A1F420813181A7
:102DE000820F931F2091B9033091BA032817390736
:102DF00009F061C0F093BA03E093B903DF91CF917A
:102E00000895EA01CE17DF07E8F54A815B819E014C
:102E100041155105B1F7E901FB83EA8349915991C5
:102E2000C40FD51FEC17FD0761F4808191810296D4
:102E3000840F951FE90199838883828193819B8305
:102E40008A83F0E0E0E012968D919C9113970097B1
:102E5000B9F52D913C911197CD010296820F931FE8
:102E60002091B9033091BA032817390739F6309702
:102E700051F51092BC031092BB03B093BA03A09318
:102E8000B903BCCFD383C28340815181840F951F86
:102E9000C817D90761F44E5F5F4F88819981480F49
:102EA000591F518340838A819B819383828321159B
:102EB000310509F0B0CFF093BC03E093BB039ECF84
:102EC000FD01DC01C0CF13821282D7CFB0E0A0E0B9
:102ED000ECE6F7E10C94DC148C01009751F4CB0183
:102EE0000E9441168C01C801CDB7DEB7E0E10C9419
:102EF000F814FC01E60FF71F9C0122503109E2177C
:102F0000F30708F49DC0D901CD91DC911197C61744
:102F1000D70798F0C530D10530F3CE010497861756
:102F2000970708F3C61BD70B2297C193D1936D93D4
:102F30007C93CF010E94DD16D6CF5B01AC1ABD0A8F
:102F40004C018C0E9D1EA091BB03B091BC03512C73
:102F5000412CF12CE12C109731F58091B90390911F
:102F6000BA038815990509F05CC04616570608F0A3
:102F700058C08091000190910101009741F48DB7F4
:102F80009EB74091040150910501841B950BE817F1
:102F9000F90708F055C0F093BA03E093B903F901BB
:102FA00071836083A0CF8D919C91119712966C9044
:102FB000129713967C901397A815B90559F56C01D3
:102FC00042E0C40ED11CCA14DB0420F1AC014A1942
:102FD0005B09DA011296159780F062827382518341
:102FE0004083D9016D937C93E114F10471F0D70112
:102FF0001396FC93EE93129776CF22968C0F9D1F1B
:10300000F90191838083F301EFCFF093BC03E09348
:10301000BB0369CF4816590608F42C017D01D30182
:103020009ACFCB010E9441167C01009749F0AE0176
:10303000B8010E942318C8010E94DD16870153CFF2
:1030400010E000E050CFFB01DC0102C001900D92C6
:1030500041505040D8F70895FB01DC018D9101905B
:1030600080190110D9F3990B0895FB01DC0101903F
:103070000D920020E1F7089510E0CCEAD0E004C002
:10308000FE010E9476152196CD3AD107C9F7F89432
:02309000FFCF70
:103092000000BD03800053756E646179000000007A
:1030A20000004D6F6E6461790000000000005475ED
:1030B200657364617900000000005765646E657392
:1030C200646179000000546875727364617900006C
:1030D20000004672696461790000000000005361DB
:1030E2007475726461790000000000000000DC0366
:1030F2003C03690344049A0378038C030000000034
:1031020083065606B2062C064F063C062D060D0A0D
:10311200003A0031323A303A300031373A303A3000
:10312200006E616E00696E66006F7666002F0000A9
:00000001FF
